:10000000D5C00000FBC00000F9C00000F7C0000030
:10001000F5C00000F3C00000F1C00000EFC0000018
:10002000EDC00000EBC000000C9409310C94C72F08
:10003000E5C00000E3C00000E1C00000DFC0000038
:10004000DDC00000DBC00000D9C00000D7C0000048
:100050000C94E81DD3C00000D1C000000C941D26F4
:10006000CDC000000C94E02A0C94122BC7C00000F5
:10007000C5C00000C3C00000C1C00000BFC0000078
:10008000BDC00000BBC00000B9C00000B7C0000088
:100090000C940025B3C00000B1C00000AFC0000048
:1000A000ADC00000ABC00000A9C00000000000020D
:1000B00000090F0000030401000C00000000000014
:1000C0000000000000000000000000040802011011
:1000D0004080401020408040800802040180402081
:1000E0001002011080102040402004040404040386
:1000F00004050202020204030202020206060606C8
:100100000606040402020204040000000023002684
:100110000029002C002F0000000000250028002BE3
:10012000002E00310000000000240027002A002DCE
:10013000003000080B000202020000090400000168
:10014000020200000524001001052401010104241D
:10015000020605240600010705810310004009047A
:100160000100020A00000007050202400000070526
:10017000830240000012010002EF020140412337D8
:100180008000010102030141726475696E6F204CA9
:100190004C430041726475696E6F204D6963726FE4
:1001A0000004030904006B22A329372B11241FBE6E
:1001B000CFEFDAE0DEBFCDBF12E0A0E0B1E0E2E1D8
:1001C000F5E602C005900D92A831B107D9F726E0F7
:1001D000A8E1B2E001C01D92AD33B207E1F710E033
:1001E000C6EDD0E004C02197FE010E947532C33DE8
:1001F000D107C9F70E94C71E0C94873201CF88230C
:1002000059F0813049F426E030E040E855E260E002
:1002100070E081E090E0FDC208954F925F926F928E
:100220007F928F929F92AF92BF92CF92EF92FF9266
:100230000F931F93CF93DF93CDB7DEB72B013A0116
:10024000F02EB40130E02830310511F424E030E024
:100250000AE010E0CC2061F091E000E110E0C91666
:1002600039F0E2E008E010E0CE1611F002E010E014
:10027000882399F0813009F4E1C0DF91CF911F917B
:100280000F91FF90EF90CF90BF90AF909F908F9085
:100290007F906F905F904F900895F1101BC0269D46
:1002A000A001279D500D369D500D1124B2018BE009
:1002B00093E0DF91CF911F910F91FF90EF90CF903E
:1002C000BF90AF909F908F907F906F905F904F9076
:1002D0000C94EA288BE093E00E94A02BE11014C05C
:1002E000640C751C4614570441F2F20161912F0110
:1002F000F1E0A8018BE093E0FF1203C00E94722C92
:10030000F1CF0E94782CEECF81E0E81215C091E089
:10031000691A710808F4B1CFF201619171912F014E
:10032000F1E0A8018BE093E0FF1203C00E94882C4B
:10033000EECF0E948D2CEBCF82E0E81217C091E047
:10034000691A710808F499CFF201419151916191B4
:1003500071912F01F1E098018BE093E0FF1203C04F
:100360000E94662CECCF0E949D2CE9CF83E0E8121E
:1003700018C0640C751C4614570409F47ECFF201B2
:1003800061912F01062E000C770BF1E0A8018BE0A4
:1003900093E0FF1203C00E94402CEDCF0E94462C38
:1003A000EACF84E0E81215C091E0691A710808F4F8
:1003B00064CFF201619171912F01F1E0A8018BE00E
:1003C00093E0FF1203C00E94402CEECF0E94462C07
:1003D000EBCF85E0E81217C091E0691A710808F4C4
:1003E0004CCFF20141915191619171912F01F1E056
:1003F00098018BE093E0FF1203C00E94FB2BECCF2F
:100400000E94562CE9CF86E0E81237CFB12C91E05C
:10041000691A710808F431CFF2014191519161914B
:1004200071912F01F1E095018BE093E0FF1203C081
:100430000E948A2DECCF0E948B2DE9CFF1101BC0BA
:10044000269DA001279D500D369D500D1124B2010F
:100450008CE593E0DF91CF911F910F91FF90EF908A
:10046000CF90BF90AF909F908F907F906F905F9054
:100470004F900C94642B8CE593E00E94A02BE1102C
:1004800015C0640C751C4614570409F4F6CEF2012D
:1004900061912F01F1E0A8018CE593E0FF1203C008
:1004A0000E94722CF0CF0E94782CEDCF81E0E812F0
:1004B00015C091E0691A710808F4DFCEF20161916C
:1004C00071912F01F1E0A8018CE593E0FF1203C0C8
:1004D0000E94882CEECF0E948D2CEBCF82E0E81298
:1004E00017C091E0691A710808F4C7CEF201419172
:1004F0005191619171912F01F1E098018CE593E0A8
:10050000FF1203C00E94662CECCF0E949D2CE9CF05
:1005100083E0E81218C0640C751C6414750409F4B7
:10052000ACCEF20161912F01062E000C770BF1E0A9
:10053000A8018CE593E0FF1203C00E94402CEDCF90
:100540000E94462CEACF84E0E81215C091E0691AB7
:10055000710808F492CEF201619171912F01F1E0DE
:10056000A8018CE593E0FF1203C00E94402CEECF5F
:100570000E94462CEBCF85E0E81217C091E0691A83
:10058000710808F47ACEF201419151916191719113
:100590002F01F1E098018CE593E0FF1203C00E9467
:1005A000FB2BECCF0E94562CE9CF86E0E81265CEFB
:1005B000B12C91E0691A710808F45FCEF201419103
:1005C0005191619171912F01F1E0FF1214C0C1109E
:1005D00006C095018CE593E00E948A2DEACFCB01FD
:1005E000BA010E94D51FAB01BC0198018CE593E0D4
:1005F0000E94FB2BDECFC11006C095018CE593E075
:100600000E948B2DD6CFCB01BA010E94D51FAB0122
:10061000BC0198018CE593E00E94562CCACF611171
:1006200002C00C9412286130E1F362E0FACF662335
:1006300019F061E00C944E2860E0FCCF0E947B280A
:1006400021E0019709F020E0822F0895CF92DF92F8
:10065000EF92FF926B017C01C114D104E104F1041B
:1006600069F480910001811109C08091020190918B
:1006700003010E94DC2181E080930001C601880F04
:10068000991F880F991F80509F4FFF90EF90DF9028
:10069000CF900895009781F0FC012181211104C0C1
:1006A00040EA56E861E070E0FC01828193810E949B
:1006B000EB2190E080E0089588E090E008954F926B
:1006C0005F926F927F928F929F92AF92BF92CF92E2
:1006D000DF92EF92FF920F931F93CF93DF930097D8
:1006E000C9F1280139017A01EC01402F8A819B81EF
:1006F0000E9469228A819B81DC01ED91FC9100843A
:10070000F185E02D0995892B01F16701812C912C50
:1007100054018A819B81DC01ED91FC910084F1857B
:10072000E02D0995892B91F184149504A604B70452
:1007300069F18A819B81DC01ED91FC910284F38552
:10074000E02D09958F3F9807C1F484E0F7011192DD
:100750008A95E9F788E090E0DF91CF911F910F91A2
:10076000FF90EF90DF90CF90BF90AF909F908F90D1
:100770007F906F905F904F900895FFEF8F1A9F0AC0
:10078000AF0ABF0AD6018D936D01C3CF90E080E020
:10079000E3CF8F929F92AF92BF92CF92DF92EF9270
:1007A0000F931F93CF93DF930097F1F06A01EC0151
:1007B0008A819B810E94EE218A819B81DC01ED91DF
:1007C000FC910280F381E02DA801B60109958A8190
:1007D0009B8160E0E11001C061E00E94F821882364
:1007E00089F08250823088F088E090E0DF91CF91EC
:1007F0001F910F91EF90DF90CF90BF90AF909F909F
:100800008F90089590E080E0F1CF84E090E0EECF0B
:100810000895009731F0019741F48CE593E00C9432
:10082000802A8BE093E00C949D29089589EF93E052
:100830000C9486318F929F92AF92BF92CF92DF92AB
:10084000EF92FF926B017C010E9467264B015C01D5
:100850000E946726681979098A099B09C616D70676
:10086000E806F906A8F7FF90EF90DF90CF90BF90D1
:10087000AF909F908F9008950C946726CF92DF924F
:10088000EF92FF92CF93882351F16A017B01CFEF62
:10089000C80F20E030E0A901CB01B6010E94691F1A
:1008A00018168CF0C701B60190580E94DA1F9B0100
:1008B000AC016C2F70E090E080E0CF91FF90EF9062
:1008C000DF90CF90B2C0C701B6010E94D51F8C2F18
:1008D000CF91FF90EF90DF90CF900C942527CF9190
:1008E000FF90EF90DF90CF9008950F931F938B01AF
:1008F0009C0183E036952795179507958A95D1F742
:10090000085E1D4F462F477021E030E0F90102C01C
:10091000EE0FFF1F4A95E2F7AF01F8012081242373
:10092000CB010196211102C090E080E01F910F9150
:1009300008950F931F938B019C0183E036952795B3
:10094000179507958A95D1F7677081E090E001C00F
:10095000880F6A95EAF7F801E85EFD4F2081452B84
:1009600031F48095822380831F910F910895822B0B
:10097000FACF2F923F924F925F926F927F928F9217
:100980009F92AF92BF92CF92DF92EF92FF920F931E
:100990001F93CF93DF93D62EC72E782E692E490151
:1009A0005A01280161E08D2D0E941228CD2DDC2DE9
:1009B0008E010F5F1F4FA8016D2D7C2D872D962D69
:1009C000B8DF20E030E0A901C201B7010E94B820E1
:1009D000181664F4C201B7010E94DA1F2B01C50189
:1009E000B4010E94DA1FA201CE0123D0C801DF9119
:1009F000CF911F910F91FF90EF90DF90CF90BF901C
:100A0000AF909F908F907F906F905F904F903F90AE
:100A10002F900895882341F08150682F70E090E076
:100A200080E050E040E085CF0895862FB9010C9416
:100A300025279C01FC01E455FF4FE491E150EF3084
:100A4000B8F4F0E0EA5DFA4F0C94753235053C05D8
:100A50003F0556056B0538053805380580059705AF
:100A6000AC05C105D4053805E00584B5806884BDB2
:100A700060E0822F0C944E2884B58062F8CF80917C
:100A800080008C7F82608093800080918100807ED6
:100A90008061682B609381005093870040938600AB
:100AA00080918000806880938000E2CF80918000F8
:100AB0008C7F82608093800080918100807E806145
:100AC000682B60938100509387004093860080914B
:100AD00080008062E8CF809180008C7F826080936C
:100AE000800080918100807E8061682B609381000E
:100AF0005093870040938600809180008860D3CF18
:100B0000809190008C7F8260809390008091910012
:100B1000807E8061682B6093910050939700409392
:100B2000960080919000806880939000A1CF809182
:100B300090008C7F82608093900080919100807EF5
:100B40008061682B609391005093970040939600CA
:100B5000809190008062E8CF809190008C7F8260CD
:100B60008093900090919100907E9061692B6093AA
:100B70009100509397004093960080919000886078
:100B8000D3CF8091C100807F682B6093C1004093D8
:100B9000D1008091C00080688093C0008091C00027
:100BA0008F7B8093C00064CF8091C100807F682BD1
:100BB0006093C1004093D1008091C0008062F1CF6A
:100BC0008091C100807F682B6093C1004093D10069
:100BD0008091C20088608093C2008091C2008B7FA8
:100BE0008093C20045CF81E08093D2058091360585
:100BF0008695809336058091350590E001968115A4
:100C000021E0920711F48FEF90E08093350508956D
:100C100080914505823089F028F4813059F0109296
:100C200045050895853069F08630C9F781E08093E5
:100C3000D205F5CF1092D305F2CF81E08093350530
:100C4000EECF1092D205EBCF80914A05813019F09A
:100C50008230B1F0089510924B05809185059091F6
:100C60008605A0918705B09188058093160590931D
:100C70001705A0931805B093190510924A05089519
:100C800010924C058091850590918605A09187056D
:100C9000B091880580931A0590931B05A0931C05BD
:100CA000B0931D0581E08093C905E7CFFC0181E089
:100CB0002091250230912602232B09F080E08183C8
:100CC00081E02091270230912802232B09F080E057
:100CD000828381E02091290230912A02232B09F09E
:100CE00080E08383089580912502909126020196E9
:100CF0008A309105F8F49093260280932502809122
:100D00002702909128020196843F21E09207B8F4CF
:100D100090932802809327028091290290912A02C1
:100D20000196883E23E0920778F490932A028093FC
:100D3000290208951092260210922502E0CF109207
:100D4000280210922702E8CF10922A02109229025C
:100D500008952F923F924F925F926F927F928F925F
:100D60009F92AF92BF92CF92DF92EF92FF920F933A
:100D70001F93CF93DF93CDB7DEB7CE54D1090FB613
:100D8000F894DEBF0FBECDBF61E575E08DE895E05C
:100D90000E942A1A8091D6058093CA058091D405B5
:100DA0008093CB058091D5058093CC0522E9C22E96
:100DB00025E0D22E31E9E32E35E0F32E05E515E0EE
:100DC00029EC35E045E855E061E575E08AEC95E011
:100DD0000E94491820916105309162054091630598
:100DE00050916405609155057091560580915705A5
:100DF000909158050E94041F6093590570935A05FD
:100E000080935B0590935C054EECE42E45E0F42E58
:100E10000DEC15E02DE535E041E955E060ED75E0BC
:100E200089E595E00E94421CC0901E05D0901F05E8
:100E3000E0902005F0902105C701B6010E9408202E
:100E40002B013C0120912401309125014091260184
:100E5000509127010E94691F87FF16C2F7FC14C238
:100E600080901C0190901D01A0901E01B0901F0168
:100E700020E030E040E85FE36091200170912101C3
:100E800080912201909123010E94041F9B01AC01DB
:100E9000C301B2010E94B82087FDFAC110921E055D
:100EA00010921F051092200510922105A5019401B2
:100EB00060E575E081E090E00E943917892B09F424
:100EC000BEC160906105709062058090630590904E
:100ED000640560929E0570929F058092A005909295
:100EE000A105A0908505809186058CABE0918705D2
:100EF000EDABF0918805FEABA092A2058093A3050F
:100F0000E093A405F093A505209179052FAB80917E
:100F10007A0588AFE0917B05E9AFF0917C05FAAFE7
:100F20002093A6058093A705E093A805F093A90553
:100F300020917D052BAF80917E058CAFE0917F05E0
:100F4000EDAFF0918005FEAF2093AA058093AB052D
:100F5000E093AC05F093AD05209181052FAF809112
:100F6000820521968FAF2197E09183052296EFAFFE
:100F70002297F09184052396FFAF23972093AE0527
:100F80008093AF05E093B005F093B105209175050E
:100F900024962FAF24978091760525968FAF2597BD
:100FA000E09177052696EFAF2697F0917805279682
:100FB000FFAF27972093B2058093B305E093B40564
:100FC000F093B5052091CD0528AB2093B60580910F
:100FD000CF0589AB8093B705E091D005EAABE093EC
:100FE000B805F0918B052896FFAF289720918C05C6
:100FF00029962FAF2997F093B9052093BA058091D0
:10100000D1058BAB8093BB05E09174012A96EFAFBD
:101010002A97F09175012B96FFAF2B97E093BC05B3
:10102000F093BD0520915D052C962FAF2C978091F4
:101030005E052D968FAF2D97E0915F052E96EFAF51
:101040002E97F09160052F96FFAF2F972093BE0546
:101050008093BF05E093C005F093C105B090CE0525
:10106000B092C205C0909105C092C305D090D7053B
:10107000D092C405E090D405E092C505F090D50566
:10108000F092C6050091D6050093C7051091920510
:101090001093C805209008013090090140900A0182
:1010A00050900B01A20191016091150470911604FA
:1010B00080911704909118040E94691F882341F0C1
:1010C000209215043092160440921704509218048E
:1010D00069827A828B829C82AD822CA92E838DA913
:1010E0008F83EEA9E887FFA9F98728AD2A8789AD04
:1010F0008B87EAADEC87FBADFD872CAD2E878DADE0
:101100008F87EEADE88BFFADF98B21962FAD219740
:101110002A8B22968FAD22978B8B2396EFAD239748
:10112000EC8B2496FFAD2497FD8B25962FAD25974C
:101130002E8B26968FAD26978F8B2796EFAD279710
:10114000E88FF8A9F98F29A92A8F8AA98B8F289669
:10115000EFAD2897EC8F2996FFAD2997FD8F2BA92E
:101160002E8F2A968FAD2A978F8F2B96EFAD2B97C8
:10117000E8A32C96FFAD2C97F9A32D962FAD2D97B4
:101180002AA32E968FAD2E978BA32F96EFAD2F9778
:10119000ECA3BDA2CEA2DFA2E8A6F9A60AA71BA7D0
:1011A00080918D058CA780918E058DA780918F05EC
:1011B0008EA7809190058FA76091290470912A04D1
:1011C00080912B0490912C040E94DA1FC62E60910E
:1011D00021047091220480912304909124040E94A0
:1011E000DA1FE62E60912504709126048091270471
:1011F000909128040E94DA1F062F60911D047091BF
:101200001E0480911F04909120040E94DA1F162F63
:101210006091190470911A0480911B0490911C0430
:101220000E94DA1F862F912C812C92E0A92E212F6B
:101230004FE250E0BE016F5F7F4F0E940D0163E9F6
:1012400075E08DE895E00E94C71A67E975E085E5CD
:1012500095E00E942A1D0BE915E021E535E042E901
:1012600055E065E575E087E995E00E94131B8091E4
:10127000410581111BC081E08093410580934205A7
:1012800087E08093400533C0812C912C5401F0CD30
:101290002FEFC21AD20AE20AF20AC0921E05D092B9
:1012A0001F05E0922005F092210500CE90914205A5
:1012B000923009F48CC0933009F4B3C0913009F036
:1012C000ABC180919B05882309F46DC08130C1F6C4
:1012D00082E08093420580913F0590E00196811560
:1012E000F1E09F0711F48FEF90E080933F0560914C
:1012F000D20588E09CD96091D30589E098D9809186
:101300003405811108C0809174019091750190930A
:101310003305809332056091CE058AE088D965E077
:1013200070E080E090E0E1DA8C019093A10480937A
:10133000A004C0905D05D0905E05E0905F05F09040
:10134000600520E030E04FE753E4C701B6010E949A
:10135000691F18160CF472C120E030E0A901C70122
:10136000B6010E94B82087FD70C1B701A601C8016F
:1013700085DAC25BDF4F0FB6F894DEBF0FBECDBF7C
:10138000DF91CF911F910F91FF90EF90DF90CF9061
:10139000BF90AF909F908F907F906F905F904F9095
:1013A0003F902F90089586E08093420580919305A9
:1013B00080933B058091940580933C058091950531
:1013C00080933D058091960580933E0590CF609176
:1013D00040056623C1F080913F050E943332992376
:1013E00091F085E0809342058091970580933B05BD
:1013F0008091980580933C058091990580933D05E7
:1014000080919A05E1CF84E08093420510923B05DC
:1014100010923C0510923D0510923E0510923F053A
:1014200066CF8091430520914D052223A9F082309B
:1014300029F0853051F01092440503C081E080937B
:10144000D3051092430581E019CFE2DB81E0809360
:10145000D20580933805F5CF823041F1A8F4813070
:10146000E1F08091380590913705981708F075C024
:10147000CFDB81E08093D2058093380582E08093B2
:10148000430510924E0533CF833001F1843049F784
:1014900090934305909344052ACF85E080934305BC
:1014A00089E0809345051092D20521CF80913A05BD
:1014B000883819F481E080934D0581E08093D3054D
:1014C00083E0809343058093440511CF80914E05BE
:1014D000882381F01092440581E0809343051092A7
:1014E000D30590913A059093360580933505809306
:1014F0003805FDCE80914405833009F0F8CE809107
:1015000039058130E1F070F0823009F0F0CE80933F
:10151000440588E880933A0581E08093370510926E
:1015200039050AC081E08093440590E490933A0520
:10153000809337058093390580934E05D8CE84E09B
:101540008093440580EC80933A0585E080933705CD
:1015500082E08093390581E0EFCFE0914505E150CD
:10156000E83008F048C0F0E0E854F54F0C947532CC
:10157000C00AC60ACA0ACA0ACF0ADE0AE30AEA0A87
:101580001092D30586E080934505B1CE81E080932B
:10159000350586CF87E08093450525DBA8CE1092E0
:1015A000D20598E09093450590E001968F3F910514
:1015B00009F008F49CCF8FEF90E099CF81E0809301
:1015C000D20585E0E0CF80913505893008F468CFF9
:1015D00081E067CF92E090934505882349F08150E0
:1015E000990B865C9A4FFC018081809336057FCEF3
:1015F00090E080E0F6CF8091360580FD06C084E063
:10160000809345051092D30572CE83E08093450503
:1016100081E08093D3056BCE83E08093420584E024
:10162000809343051092390510924E0581E0809316
:10163000D3058093D20510924D0559CEC12CD12CE3
:101640008FE7E82E83E4F82E90CEC12CD12C7601C2
:101650008CCE4F925F926F927F928F929F92AF92B9
:10166000BF92CF92DF92EF92FF92CF93DF93809160
:101670004605811169C081E08093460582E0809330
:1016800047058091CD05811138C380912205909145
:101690002305A0912405B09125050196A11DB11D3A
:1016A0008093220590932305A0932405B0932505EC
:1016B0008091D00581112AC380912605909127053C
:1016C000A0912805B09129050196A11DB11D809317
:1016D000260590932705A0932805B09329058091AE
:1016E0002A0590912B05A0912C05B0912D0501960E
:1016F000A11DB11D80932A0590932B05A0932C0565
:10170000B0932D0580912E0590912F05A091300565
:10171000B09131050196A11DB11D80932E059093C6
:101720002F05A0933005B0933105DF91CF91FF9045
:10173000EF90DF90CF90BF90AF909F908F907F9071
:101740006F905F904F90089580919205D0914705DA
:10175000D13009F0A8C2C091480581110BC0C23038
:1017600031F472DAC093C9051092480587CF109200
:101770004905FACFC130A9F1C23009F082CF80917A
:10178000D105882309F462C190914F05992309F48A
:101790005DC15ADAC093C905D0934805C0901A05B7
:1017A000D0901B05E0901C05F0901D05C0920E0521
:1017B000D0920F05E0921005F09211058090160569
:1017C00090901705A0901805B090190580920A0511
:1017D00090920B05A0920C05B0920D05D09349058F
:1017E0003BC08091D7058823A1F01092490583E082
:1017F0008093480520E030E048E452E4609185059C
:101800007091860580918705909188050E94051F3B
:101810008FC180914905823009F433CF30F4813093
:10182000F1F181E08093490507C0833009F484C059
:101830008430B9F7C0934905C0900E05D0900F05CC
:10184000E0901005F090110580900A0590900B052E
:10185000A0900C05B0900D05A5019401C701B6013B
:101860000E94051F20E030E040E05FE30E94BC20C2
:10187000609385057093860580938705909388050E
:10188000A5019401C701B6010E94041F60931205CF
:10189000709313058093140590931505F2CEC090B4
:1018A0006105D0906205E0906305F090640580903A
:1018B000850590908605A0908705B090880520E06A
:1018C00030E040E05FE36091380170913901809130
:1018D0003A0190913B010E94BC202B013C01AC01DC
:1018E0009B01C501B4010E94041F9B01AC01C7010B
:1018F000B6010E94B82087FDC4CEA3019201C501A4
:10190000B4010E94051F9B01AC01C701B6010E94F2
:10191000691F18160CF4B5CE8091D0058111B1CE97
:10192000109222051092230510922405109225058D
:1019300083E080934905A5CE8091CD05882341F0B1
:10194000109222051092230510922405109225056D
:1019500060912205709123058091240590912505C1
:101960000E9406206B017C0120E030E040EA51E457
:101970006091340170913501809136019091370169
:101980000E94BC209B01AC01C701B6010E94B82097
:1019900018160CF076CEC0901205D0901305E0908A
:1019A0001405F09015058090380190903901A090B1
:1019B0003A01B0903B01A5019401C701B6010E9414
:1019C000691F87FF17C082E08093490580910E054B
:1019D00090910F05A0911005B09111058093850598
:1019E00090938605A0938705B093880581E0809346
:1019F000D70547CEA5019401C701B6010E94B820C2
:101A000087FD3FCE2091D105809185059091860577
:101A1000A0918705B0918805222361F024E02093EE
:101A2000490580930A0590930B05A0930C05B0938C
:101A30000D0527CE25E02093490580930E05909350
:101A40000F05A0931005B09311051BCEC091D005D2
:101A500090914A05913009F074C080914B05813016
:101A600009F1823019F12091850530918605409168
:101A7000870550918805609161057091620580919C
:101A80006305909164050E94691F18160CF4F9CD46
:101A900010922A0510922B0510922C0510922D05FC
:101AA00082E001C083E080934B05EBCDCC2341F075
:101AB00010922A0510922B0510922C0510922D05DC
:101AC00060912A0570912B0580912C0590912D0530
:101AD0000E9406206B017C0120E030E040EA51E4E6
:101AE00060913401709135018091360190913701F8
:101AF0000E94BC209B01AC01C701B6010E94B82026
:101B000018160CF0BECD81E080934B05209130017A
:101B1000309131014091320150913301609185053E
:101B20007091860580918705909188050E94041F19
:101B3000609385057093860580938705909388054B
:101B4000A0CD811150C0CC2341F010922E051092EF
:101B50002F05109230051092310560912E0570917D
:101B60002F0580913005909131050E9406206B0170
:101B70007C0120E030E040EA51E460913401709152
:101B8000350180913601909137010E94BC209B0164
:101B9000AC01C701B6010E94B820181624F521E057
:101BA00020934F0510924C05609185057091860534
:101BB000809187059091880560931A0570931B05A5
:101BC00080931C0590931D052093C90520934A0519
:101BD00020934B0520913001309131014091320129
:101BE00050913301A3CF80914C05813019F182309F
:101BF00009F481C0209185053091860540918705C3
:101C0000509188056091610570916205809163052E
:101C1000909164050E94B82087FD33CD109226056F
:101C200010922705109228051092290581E08093D3
:101C30004C0527CDCC2341F01092260510922705A4
:101C400010922805109229056091260570912705AC
:101C500080912805909129050E9406206B017C0146
:101C600020E030E040EA51E46091340170913501A8
:101C700080913601909137010E94BC209B01AC01FC
:101C8000C701B6010E94B82018160CF0FACC82E009
:101C900080934C0520913001309131014091320107
:101CA00050913301ABCD813009F0EBCC80934705E7
:101CB00082E08093480540912C0150912D01609164
:101CC0002E0170912F0140938505509386056093F6
:101CD00087057093880510924F051092C9051092E0
:101CE000D70510922E0510922F05109230051092F4
:101CF000310580934A0583E09ACF10922205109215
:101D000023051092240510922505D2CC10922605A9
:101D100010922705109228051092290510922A0585
:101D200010922B0510922C0510922D0510922E0565
:101D300010922F051092300510923105F6CC2F929B
:101D40003F924F925F926F927F928F929F92AF924B
:101D5000BF92CF92DF92EF92FF920F931F93CF9398
:101D6000DF93CDB7DEB7AB970FB6F894DEBF0FBEEB
:101D7000CDBFC0901401D0901501E0901601F090F5
:101D80001701A701960160915A0470915B0480913C
:101D90005C0490915D040E94691F882341F0C09209
:101DA0005A04D0925B04E0925C04F0925D04C12C72
:101DB000E12C02E010E020E030E0AE01435F5F4F35
:101DC00068E270E080915004909151040E945F039A
:101DD0008D859E8590939D0580939C0561E675E0B9
:101DE0008CE995E00E94731DB0916105A091620598
:101DF000D0906305C090640502EA14E030E4E32E5D
:101E000031E0F32E812C912C5401F8014190519036
:101E1000619071908F01CF0104974B2F5A2F6D2D38
:101E20007C2DFC014083518362837383F7016191B0
:101E30007191819191917F012B2F3A2F4D2D5C2D26
:101E40000E94BC209B01AC01C501B4010E94051F8A
:101E50004B015C01B42DA52DD62CC72CF4E0063B1C
:101E60001F0799F620915401309155014091560178
:101E700050915701642D752D862D972D0E94BC2001
:101E8000A50194010E94051F6EA37FA388A799A7AF
:101E9000C0900401D0900501E0900601F090070188
:101EA000A701960160913504709136048091370442
:101EB000909138040E94691F882341F0C092350434
:101EC000D0923604E0923704F092380480913904BD
:101ED000811105C00E943C0481E08093390488E0B0
:101EE0008F87C12CEE24E39401E010E020E030E085
:101EF000AE01415F5F4F69E270E0809140049091D4
:101F000041040E94C9038111A0C2CC24C394E12CD6
:101F100006E010E020E030E0AE014F5F5F4F69E285
:101F200070E080914004909141040E945F0386E03C
:101F3000FE013196DE01179601900D928A95E1F728
:101F40006F817885072E000C880B990B0E94082062
:101F500020E030E048EC52E40E946D1F6A8F7B8FD6
:101F60008C8F9D8F69857A85072E000C880B990BC5
:101F70000E94082020E030E048EC52E40E946D1FEF
:101F80006E8F7F8F88A399A36B857C85072E000CAD
:101F9000880B990B0E94082020E030E048EC52E4C6
:101FA0000E946D1F6AA37BA38CA39DA300915C017B
:101FB00010915D0120915E0130915F010E8B1F8BAE
:101FC000288F398F2EA13FA148A559A56E897F89F9
:101FD000888D998D0E94BC206B017C018090060544
:101FE00090900705A0900805B090090500E611E063
:101FF0001BA70AA71401220C331C220C331C1D8BB7
:102000000C8B2401350110E000E021E030E040E0DD
:1020100050E0288B398B4A8B5B8B0C5F1F4F45E060
:1020200044165104610471040CF416C206EB14E06A
:102030001D8B0C8B08891989000F111F000F111FB0
:10204000712C612C212C312C2101E4E06E0E711CCD
:10205000281439044A045B040CF42BC2C0926505B1
:10206000D0926605E0926705F09268052A8D3B8D57
:102070004C8D5D8D6E897F89888D998D0E94BC20E5
:102080006B017C01D501C4010596A11DB11D1C0188
:10209000220C331C220C331C00E611E0198B088B38
:1020A0002401350110E000E00C5F1F4FE5E04E1603
:1020B00051046104710409F01DC21AEC212E14E0D0
:1020C000312E86E090E0A0E0B0E088199909AA09D5
:1020D000BB09880F991F880F991F8C010C5F1E4F39
:1020E000198B088B30E020E0412C512C3201890102
:1020F0000C5F1F4F481459046A047B040CF41BC284
:10210000C0926905D0926A05E0926B05F0926C0569
:102110002E8D3F8D48A159A16E897F89888D998D1B
:102120000E94BC206B017C01D501C4010A96A11D4F
:10213000B11D1C01220C331C220C331C00E611E0E3
:102140001D8B0C8B2401350110E000E00C5F1F4F4C
:10215000E5E04E1651046104710409F00DC2AEEDC4
:102160002A2EA4E03A2E30E020E0412C512C3201FE
:1021700089010C5F1F4F481459046A047B040CF456
:102180001CC2C0926D05D0926E05E0926F05F09270
:1021900070052AA13BA14CA15DA16E897F89888D24
:1021A000998D0E94BC206B017C01D501C4010F9662
:1021B000A11DB11D3C01660C771C660C771C140137
:1021C000250110E000E00C5F1F4F25E022163104CE
:1021D0004104510409F012C2E2EF6E2EE4E07E2EBB
:1021E00030E020E0212C312C210189010C5F1F4FB0
:1021F000281439044A045B040CF421C2C09271050E
:10220000D0927205E0927305F092740549E755E0AB
:1022100065E775E085E695E00E94961A81E0809377
:102220003405809132059091330590938A0580930F
:102230008905109234054FEC55E066E771E089E7B7
:1022400095E00E94D61B00ED15E028E731E041E55E
:1022500055E06FEC75E08DEC95E00E94871B01ED79
:1022600015E02BE835E049E855E060ED75E085E7DD
:1022700095E06ED6C0900C01D0900D01E0900E015B
:10228000F0900F01A701960160917E0470917F0488
:1022900080918004909181040E94691F882341F0FD
:1022A000C0927E04D0927F04E0928004F092810478
:1022B00080E00E941E038093D605C0901001D0904C
:1022C0001101E0901201F0901301A70196016091B5
:1022D00072047091730480917404909175040E944B
:1022E000691F882341F0C0927204D0927304E09277
:1022F0007404F092750486E00E941E038093D50555
:10230000C0901801D0901901E0901A01F0901B01C3
:10231000A70196016091660470916704809168043A
:10232000909169040E94691F882341F0C09266045D
:10233000D0926704E0926804F092690484E00E94FD
:102340001E038093D4058091060590910705A09106
:102350000805B09109050197A109B109B7FD90C120
:102360008093060590930705A0930805B09309058F
:102370008091060590910705A0910805B091090587
:10238000FC01EE0FFF1FEE0FFF1FEA54FB4F0EA1E3
:102390001FA128A539A50083118322833383AC01B3
:1023A000BD014B5F5F4F6F4F7F4F440F551F440F71
:1023B000551F4A545B4F0A8D1B8D2C8D3D8DFA01A4
:1023C0000083118322833383AC01BD01465F5F4FDD
:1023D0006F4F7F4F440F551F440F551F4A545B4F9B
:1023E0000E8D1F8D28A139A1FA010083118322834C
:1023F00033830F96A11DB11D880F991F880F991F58
:102400008A549B4F0AA11BA12CA13DA1DC010D9375
:102410001D932D933C931397AB960FB6F894DEBFA4
:102420000FBECDBFDF91CF911F910F91FF90EF9025
:10243000DF90CF90BF90AF909F908F907F906F90E4
:102440005F904F903F902F90089518861F821A86B4
:1024500019861C861B8674CDAC89BD896D917D91D2
:102460008D919D91BD8BAC8BF801E20DF31DEE5467
:10247000FB4F20813181428153810E94BC209B010E
:10248000AC01C701B6010E94051F6B017C012889C0
:1024900039894A895B892F5F3F4F4F4F5F4F288BA8
:1024A000398B4A8B5B8B3FEF431A530A630A730ADB
:1024B000B4CDAC89BD896D917D918D919D91BD8B80
:1024C000AC8BF301E00FF11FE85AFE4F2081318100
:1024D000428153810E94BC209B01AC01C701B6011F
:1024E0000E94051F6B017C01BFEF2B1A3B0A4B0AB0
:1024F0005B0AABCDA889B9896D917D918D919D9134
:10250000B98BA88BF801E20DF31DEE54FB4F20812F
:102510003181428153810E94BC209B01AC01C701E3
:10252000B6010E94051F6B017C01BFEF4B1A5B0ACD
:102530006B0A7B0AB9CDD1016D917D918D919D91F1
:102540001D01285A3F4FE889F989E20FF31F2081C6
:102550003181428153810E94BC209B01AC01C701A3
:10256000B6010E94051F6B017C01BFEF4B1A5B0A8D
:102570006B0A7B0A9801BBCDAC89BD896D917D91B9
:102580008D919D91BD8BAC8BF801E20DF31DEE5446
:10259000FB4F20813181428153810E94BC209B01ED
:1025A000AC01C701B6010E94051F6B017C01BFEFA2
:1025B0004B1A5B0A6B0A7B0AC9CDD1016D917D91E3
:1025C0008D919D911D01285A3F4FE889F989E20FAD
:1025D000F31F20813181428153810E94BC209B01E5
:1025E000AC01C701B6010E94051F6B017C01BFEF62
:1025F0004B1A5B0A6B0A7B0A9801BACDEAA5FBA5C8
:102600006191719181919191FBA7EAA7F801E60D83
:10261000F71DEE54FB4F20813181428153810E948E
:10262000BC209B01AC01C701B6010E94051F6B01D4
:102630007C01FFEF2F1A3F0A4F0A5F0AC4CDD30176
:102640006D917D918D919D913D01285A3F4FE88973
:10265000F989E20FF31F20813181428153810E9469
:10266000BC209B01AC01C701B6010E94051F6B0194
:102670007C01BFEF2B1A3B0A4B0A5B0A9801B5CDD0
:1026800084E090E0A0E0B0E06BCE8F929F92AF929A
:10269000BF92CF92DF92EF92FF920F931F93CF934F
:1026A000DF9300D000D000D0CDB7DEB7BED6B1D416
:1026B000A1D70E94CE1B42D483E080935005809125
:1026C0003C0190913D01A0913E01B0913F0180936A
:1026D000A2049093A304A093A404B093A5048093B0
:1026E000A6049093A704A093A804B093A904809390
:1026F000AA049093AB04A093AC04B093AD04809370
:10270000AE049093AF04A093B004B093B10480934F
:10271000B2049093B304A093B404B093B504809131
:10272000580190915901A0915A01B0915B01E6EBDB
:10273000F4E081939193A193B19325E0E630F20701
:10274000C1F710920F048091080190910901A091A6
:102750000A01B0910B018093150490931604A09385
:102760001704B0931804812C912C54018394809207
:10277000100490921104A0921204B09213041092CB
:10278000190410921A0410921B0410921C0480E089
:1027900090E0A0E8BFE380931D0490931E04A093F3
:1027A0001F04B0932004109221041092220410926E
:1027B00023041092240410922504109226041092EF
:1027C0002704109228041092290410922A041092CF
:1027D0002B0410922C0480E00E94FF0081E0809383
:1027E000140480917A0180934E051092390480E0A0
:1027F00090E5A3ECB8E48093460490934704A0933B
:102800004804B093490410923C0410923D04109285
:102810003E0410923F041092410410924004109222
:102820003B0410922F048091040190910501A09126
:102830000601B09107018093350490933604A0936C
:102840003704B09338048092300490923104A092FF
:102850003204B092330450E040E060E070E0CB011D
:102860000E942603909341048093400440EA56E876
:1028700061E070E040934204509343046093440449
:10288000709345040E944A0368E572E080E090E09E
:102890000E941A041D821E82C12CEE24E39401E0E2
:1028A00010E020E030E0AE014A5F5F4F69E270E087
:1028B00080914004909141040E94C9038D8381114D
:1028C0000FC2CC24C394E12C01E010E020E030E002
:1028D000AE014B5F5F4F69E270E0809140049091E0
:1028E00041040E945F038D8191E0803A09F090E0FD
:1028F00090933A04803A09F0ECC01A828DE3898300
:1029000089819A819C838B83C12CE12C02E010E0A9
:1029100020E030E0AE014D5F5F4F69E270E08091F2
:102920004004909141040E94C90369E170E080E095
:1029300090E00E941A0480E28A838FE38983898170
:102940009A819C838B8302E010E020E030E0AE01AE
:102950004D5F5F4F69E270E08091400490914104C7
:102960000E94C9031D821E82EE24E39401E010E060
:1029700020E030E0AE014A5F5F4F69E270E0809195
:102980004004909141040E94C9038D8390E081111D
:1029900013C0CC24C394E12C01E010E020E030E02F
:1029A000AE014B5F5F4F69E270E08091400490910F
:1029B00041040E945F039D8181E0903A09F080E02C
:1029C00080933A0480913A04882309F48BC162E32E
:1029D00070E080E090E00E941A041A828EE38983FE
:1029E00089819A819C838B83C12CE12C02E010E0C9
:1029F00020E030E0AE014D5F5F4F69E270E0809112
:102A00004004909141040E94C9038FE38983898126
:102A10009A819C838B8302E010E020E030E0AE01DD
:102A20004D5F5F4F69E270E08091400490914104F6
:102A30000E94C90387E0898389819A819C838B8363
:102A400002E010E020E030E0AE014D5F5F4F69E250
:102A500070E080914004909141040E94C9036AE0B3
:102A600070E080E090E00E941A0480E88A838BE3A3
:102A7000898389819A819C838B8302E010E020E026
:102A800030E0AE014D5F5F4F69E270E0809140043D
:102A9000909141040E94C9038CE08A838DE389836D
:102AA00089819A819C838B8302E010E020E030E0F2
:102AB000AE014D5F5F4F69E270E0809140049091FC
:102AC00041040E94C90369E170E080E090E00E9447
:102AD0001A04DD24D394D092340410928A04812CF9
:102AE000912C5401839480928B0490928C04A09238
:102AF0008D04B0928E0461E088E00E940F03D092B2
:102B00008F04109282048092830490928404A09295
:102B10008504B092860461E089E00E940F03D092A0
:102B20008704109292048092930490929404A0924D
:102B30009504B092960461E08AE00E940F03D0925F
:102B4000970410929A0480929B0490929C04A09205
:102B50009D04B0929E04E12CF12C8701A8019701FD
:102B600065E070E080E090E00E94B9049093A104D9
:102B70008093A004D0929F0480E090E5A3ECB8E499
:102B80008093560490935704A0935804B09359042B
:102B900010924A048091140190911501A0911601A0
:102BA000B091170180935A0490935B04A0935C0446
:102BB000B0935D0480924B0490924C04A0924D041B
:102BC000B0924E0450E040E060E070E0CB010E9423
:102BD0002603909351048093500440EA56E861E044
:102BE00070E04093520450935304609354047093E4
:102BF00055040E944A03D0924F04109276048091AB
:102C00000C0190910D01A0910E01B0910F018093E4
:102C10007E0490937F04A0938004B09381048092FB
:102C2000770490927804A0927904B0927A0460E0DC
:102C300080E00E940F03D0927B0410926A0480917E
:102C4000100190911101A0911201B0911301809394
:102C5000720490937304A0937404B09375048092EB
:102C60006B0490926C04A0926D04B0926E0460E0CC
:102C700086E00E940F03D0926F0410925E04809150
:102C8000180190911901A0911A01B0911B01809334
:102C9000660490936704A0936804B09369048092DB
:102CA0005F0490926004A0926104B092620460E0BC
:102CB00084E00E940F03D092630426960FB6F89426
:102CC000DEBF0FBECDBFDF91CF911F910F91FF905F
:102CD000EF90DF90CF90BF90AF909F908F9008952E
:102CE00080E002CE6AE070E080E090E00E941A048A
:102CF0001D821E82C12C38CE80910F04811103C029
:102D000081E080930F0480918A04811103C081E0E7
:102D100080938A0480918204811103C081E08093B2
:102D2000820480919204811103C081E08093920417
:102D300080919A0481112EC081E080939A04809141
:102D40009B0490919C04A0919D04B0919E040197D6
:102D5000A105B105F9F480919F048823D9F065E0BD
:102D600070E080E090E00E9475049093A10480934D
:102D7000A00440E050E0BA010E943E0465E070E02B
:102D800080E090E00E9475049093A1048093A004D9
:102D90000E940A0580914A04811119C081E0809344
:102DA0004A0480914B0490914C04A0914D04B09141
:102DB0004E040197A105B10551F480914F04882379
:102DC00031F080915004909151040E940804809148
:102DD0002F04811119C081E080932F048091300469
:102DE00090913104A0913204B09133040197A10570
:102DF000B10551F480913404882331F0809140046E
:102E0000909141040E94080480913B0481111BC0F1
:102E100081E080933B0480913C0490913D04A0911B
:102E20003E04B0913F040197A105B10561F482E031
:102E300090E0A0E0B0E080933C0490933D04A09328
:102E40003E04B0933F0480917604811103C081E079
:102E50008093760480916A04811103C081E080939D
:102E60006A0480915E04811103C081E080935E0456
:102E700008958F929F92AF92BF92EF92FF920F931D
:102E80001F93CF93DF93EC018B0149015A01FB01A2
:102E9000E080FE2DF370FF2E20E030E0A901C50197
:102EA000B4010E94B82018160CF441C020E030E0B4
:102EB000A901C501B4010E94691F87FD3AC080E0E5
:102EC00094E0F99EF0011124ED55FE4FE80FF11D3D
:102ED0009081219620E0C330D10518F4C056DE4F12
:102EE0002881292349F0E694E694E1FE02C092FD90
:102EF00003C0E4FE02C095FD90E0292F220F220FAF
:102F0000822BF8018083892F8873A9F4977081E060
:102F100020E009F480E0922FDF91CF911F910F9173
:102F2000FF90EF90BF90AF909F908F90089581E0B9
:102F3000C7CF82E0C5CF8FEF9FEFEECF1092D805BD
:102F40004FE050E062E470E089ED95E00C9480324F
:102F50008F929F92AF92BF92CF92DF92EF92FF92A9
:102F60000F931F93CF937A016901FB0120812111F7
:102F70002FC02091D8052F3011F41092D805C091A0
:102F8000D8052C2F30E0A90147525A4F4A01FA01C7
:102F90002081A0907B01B0907C01A21AB108FC01B5
:102FA00060817181828193819F7720E030E040EFE2
:102FB00052E40E94BC20FED7F40160836A0D7B2D91
:102FC000711D70937C0160937B01CF5FC093D80526
:102FD00080917B0190917C01F6019183808381E057
:102FE000F7014081518120917B0130917C012417B0
:102FF000350708F480E0F8018083CF911F910F918D
:10300000FF90EF90DF90CF90BF90AF909F908F9008
:103010000895109200061092F9051092E80510929A
:1030200004061092050610920606109207061092EA
:10303000F1051092F2051092F3051092F40510922A
:10304000E9051092EA051092EB051092EC0510923A
:10305000ED051092EE051092EF051092F00510921A
:10306000FC051092FD051092FE051092FF051092CE
:10307000F7051092F60510920906109208061092B4
:103080000306109202061092FB0581E08093F8057A
:1030900008952F923F924F925F926F927F928F92FC
:1030A0009F92AF92BF92CF92DF92EF92FF920F93D7
:1030B0001F93CF93DF9300D000D000D0CDB7DEB701
:1030C000FC01DB011A011E830D838081811106C082
:1030D0001092F7051092F605109200068181811179
:1030E00006C010920906109208061092F905828116
:1030F000811106C010920306109202061092E80594
:103100008081813091F59091000691112EC04D90F3
:103110005D906D907C9013976091F6057091F70526
:103120008090040690900506A0900606B0900706D1
:10313000860E971EA11CB11CB501A40144155505AE
:103140006605770590F48093FA0580930006409217
:10315000040650920506609206067092070688EEF5
:1031600093E09093F7058093F6051181113009F0F3
:1031700043C080910806909109062C01712C612CA6
:103180004D915D916D917C9113978090F105909098
:10319000F205A090F305B090F405840C951CA61CD4
:1031A000B71C84169506A606B70630F50091F905FA
:1031B0000111E8C01093F9051093F8054093E90553
:1031C0005093EA056093EB057093EC0588EE93E06D
:1031D00090930906809308064D915D916D917C91C5
:1031E00013974093F1055093F2056093F3057093A4
:1031F000F40581E08093F505E281E13009F043C0F8
:1032000080910206909103064C01B12CA12C4D91A6
:103210005D916D917C9113974090ED055090EE0576
:103220006090EF057090F005480C591C6A1C7B1CDF
:10323000441655066606770630F5F091E805F1115B
:10324000C7C0E093E805E093F8054093FC05509370
:10325000FD056093FE057093FF0588EE93E0909363
:103260000306809302068D919D910D90BC91A02D37
:103270008093ED059093EE05A093EF05B093F005D4
:1032800081E0809301068091FA05813041F48093BA
:10329000FB051092FA05F9018081F7018083809186
:1032A000F5058130E1F41092FB051092F50560916F
:1032B000F80570E090E080E0ABD69B01AC01ED81B9
:1032C000FE8160817181828193819FD5ED81FE8134
:1032D000608371838283938383E0F701808380918D
:1032E0000106813029F51092FB051092010683E05A
:1032F000F70180836091F80570E090E080E088D667
:103300004B015C01ED81FE814080518062807380C1
:10331000A3019201DED587FF81C0A5019401C301FD
:10332000B20172D5ED81FE816083718382839383C4
:103330008091FB05813059F4F10140815181628116
:103340007381ED81FE814083518362837383F60133
:10335000808326960FB6F894DEBF0FBECDBFDF91F7
:10336000CF911F910F91FF90EF90DF90CF90BF9082
:10337000AF909F908F907F906F905F904F903F9015
:103380002F900895013009F021CF8090E9059090A9
:10339000EA05A090EB05B090EC05481959096A09B7
:1033A0007B09880F991F880F991F4C01B12CA12C04
:1033B00082E384169506A606B70638F0441655062D
:1033C0006606770608F002CF8AE08093F805FECE05
:1033D000F13009F042CF4090FC055090FD0560901F
:1033E000FE057090FF054419550966097709880F95
:1033F000991F880F991F2C01712C612C82E34416B0
:1034000055066606770638F084169506A606B706B2
:1034100008F023CF8AE08093F8051FCFED81FE816D
:10342000108211821282138283CF109210061092A2
:103430000F0610920E0610921106109212061092AC
:10344000130610920A0610920B0610920C061092A8
:103450000D060895CF93DF93FC0180910A069091A9
:103460000B06A0910C06B0910D060196A11DB11D91
:1034700080930A0690930B06A0930C06B0930D065A
:10348000809110068F5F80931006808380910A06DA
:1034900090910B06A0910C06B0910D06EB0188836C
:1034A0009983AA83BB83809110068A30E0F18091D2
:1034B0000F068F5F80930F06109210061082809186
:1034C0000F068A3080F180910E068F5F80930E0682
:1034D00010920F068A3038F1809111068F5F809329
:1034E000110610920E0681838C33E8F020911206AB
:1034F0002F5F209312061092110611822283822FD1
:1035000065E00E943332911103C081E0809311067F
:103510002C3348F0809113068F5F8093130610922E
:10352000120612828383DF91CF9108950F931F9328
:10353000CF93DF93FC01DA01008111812281338175
:10354000EB01088319832A833B834481558166817B
:1035500077814D935D936D937C931397408551854F
:103560006285738514964D935D936D937C93179745
:10357000448555856685778518964D935D936D9343
:103580007C931B97DF91CF911F910F910895FC01C0
:10359000DB018281809314069181909315062AE0C5
:1035A000622F0E943332E82FF0E0ED54FE4F80810D
:1035B0008C93809114060E943332E92FF0E0ED5491
:1035C000FE4F8081806811968C931197809115062B
:1035D0000E943332E82FF0E0ED54FE4F80811296C6
:1035E0008C931297E92FF0E0ED54FE4F80811396F3
:1035F0008C93089510921E0610921F0610922006BA
:1036000010922106109216061092170610921806B4
:103610001092190610921A0610921B0610921C06A0
:1036200010921D0608958F929F92AF92BF92CF92F3
:10363000DF92EF92FF920F931F93CF93DF936A0174
:103640007901E801FB0180809180A280B380209104
:103650001E0630911F064091200650912106C5019B
:10366000B40137D4882339F1F6018081811123C058
:1036700080921E0690921F06A0922006B09221060C
:1036800088E893E1A0E0B0E08093160690931706D7
:10369000A0931806B0931906F70180819181A28149
:1036A000B38180931A0690931B06A0931C06B093D7
:1036B0001D0681E0888380911A0690911B06A091D7
:1036C0001C06B0911D064091160650911706609198
:1036D000180670911906840F951FA61FB71FF701D2
:1036E000408151816281738184179507A607B707CE
:1036F00008F41882DF91CF911F910F91FF90EF9006
:10370000DF90CF90BF90AF909F908F9008950F93D0
:103710001F93CF93DF93FA01D801EC0188818130A8
:1037200021F0EB018881813031F581E08C9380813B
:103730009181A281B3818093260690932706A0935E
:103740002806B0932906D9012D913C918081918161
:10375000A281B381820F931FA11DB11D8093220608
:1037600090932306A0932406B0932506DF91CF9172
:103770001F910F9108950081118122813381409121
:103780002206509123066091240670912506401769
:1037900051076207730750F71C92E8CFEAE2F6E0A0
:1037A00085E0DF011D928A95E9F708958F929F9237
:1037B000AF92BF92CF92DF92EF92FF920F931F933F
:1037C000CF934C016B017A0180912B02853011F46B
:1037D00010922B0200912B0210E0065D194FF801A8
:1037E0008081A0902C02B0902D02A81AB108F4019B
:1037F00060817181828193819F7720E030E040E297
:1038000052E4BAD4D7D3C62FF4016481758186817E
:1038100097819F7720E030E040E252E4ADD4CAD3F4
:10382000C60FF40160857185828593859F7720E0BE
:1038300030E040E252E4A0D4BDD36C0FF8016083C5
:103840006A0D7B2D711D70932D0260932C0281E017
:10385000F601208131812617370708F080E0F70153
:10386000808380912B028F5F80932B02CF911F91D9
:103870000F91FF90EF90DF90CF90BF90AF909F900F
:103880008F9008954F925F926F927F928F929F9246
:10389000AF92BF92CF92DF92EF92FF920F931F935E
:1038A000CF93DF93EC016B01D701FA018081811185
:1038B00009C08AE08093320682E380932F068093CA
:1038C00030060AC0813091F58BEF8093320682E397
:1038D00080932F061092300680917D01882399F104
:1038E0008230D9F1F90110821182128213821C9266
:1038F000F801108280917D018230D9F560917E01BE
:1039000070E0719561957109072E000C880B990B79
:103910007FD39B01AC01688179818A819B81D9D257
:1039200087FF3EC081E080937D013AC0823029F458
:1039300083E0809332068AE0C0CF833069F68093BB
:10394000320685E0BACFF901108211821282138209
:1039500081E08C93F8018083CDCF40E050E06FE7A9
:1039600073E4F90140835183628373831C9281E085
:10397000F1CF811126C060913206772761950CF452
:103980007095072E000C880B990B42D39B01AC015C
:10399000688179818A819B81EBD318160CF4C2CFA0
:1039A000DF91CF911F910F91FF90EF90DF90CF901B
:1039B000BF90AF909F908F907F906F905F904F904F
:1039C0000895813069F788809980AA80BB806091D2
:1039D0003006772761950CF47095072E000C880B44
:1039E000990B16D32B013C01AC019B01C501B4011D
:1039F00070D287FD0FC060912F06062E000C770B4A
:103A0000880B990B05D39B01AC01C501B401B0D360
:103A1000181634F6F60180818111C2CFA3019201FC
:103A2000C501B40156D287FF03C010927D01B8CF03
:103A300060912F06062E000C770B880B990BE8D2AD
:103A40009B01AC01C501B40193D318160CF0A8CFAB
:103A500082E069CFCF93DF93EB01FC01608171813C
:103A600082819381A7D2709334066093330628EE47
:103A700033E0CB01B9010E943F32FB01ED53FE4F11
:103A8000808188838091330690913406B9010E9429
:103A90003F32909334068093330624E630E0B90138
:103AA0000E943F32FB01ED53FE4F8081898380915C
:103AB000330690913406B9010E943F326AE070E00B
:103AC0000E943F326D537E4FFB0120812A839093E9
:103AD0003406809333068D539E4FFC0180818B8387
:103AE000DF91CF9108954F925F926F927F928F9264
:103AF0009F92AF92BF92CF92DF92EF92FF92CF93BD
:103B0000DF93EB01FC0160817181762767277627BF
:103B100070933A06609339068090830190908401F7
:103B2000A0908501B0908601C0907F01D090800167
:103B3000E0908101F090820190E080E067D2A501E1
:103B4000940162D19B01AC0160D1A701960114D30D
:103B50002B013C01A50194016091870170918801BE
:103B60008091890190918A014FD19B01AC01C301E1
:103B7000B201B3D1A701960147D12FE03CED4EE44D
:103B800052E4FAD260933506709336068093370676
:103B900090933806688379838A839B83DF91CF91E2
:103BA000FF90EF90DF90CF90BF90AF909F908F905D
:103BB0007F906F905F904F90089526E030E040E056
:103BC00052EC61E070E090E080E00C94090408950C
:103BD0001F920F920FB60F9211242F933F934F9382
:103BE0005F936F937F938F939F93AF93BF93EF9365
:103BF000FF9387EE9FEF909385008093840032D0EF
:103C0000FF91EF91BF91AF919F918F917F916F91B4
:103C10005F914F913F912F910F900FBE0F901F908A
:103C2000189587EE9FEF9093850080938400AFE610
:103C3000B0E08C918E7F8C93E0E8F0E080818C7F07
:103C40008083E1E8F0E08081877E808380818360EB
:103C5000808380818B7F80838C9181608C93089599
:103C600081E00895BF92CF92DF92EF92FF920F937F
:103C70001F93CF93DF9300D000D0CDB7DEB78091F4
:103C8000320291E0980F909332028823B1F021E044
:103C900030E03093370220933602809332020F9047
:103CA0000F900F900F90DF91CF911F910F91FF9088
:103CB000EF90DF90CF90BF900895CE0101960E94C3
:103CC000560678940E947306F894809132028150CF
:103CD00080933202DE0112969EE2C92E92E0D92E26
:103CE000F60181E090E02D91222309F443C0218167
:103CF00031E0320F3183222309F43CC041E050E02F
:103D00005093370240933602825D9D4FFC01208321
:103D100002E312E0EE24E394F12CBB24B394F80107
:103D200081818111BCCFF60181818823B1F0F80136
:103D3000B1827894F2E0EF16F10419F183E0E8160D
:103D4000F10411F10E94A906F894F60181818150D5
:103D50008183F801818181508183FFEFEF1AFF0A8F
:103D60000F5F1F4F8FEFC81AD80AE4E0EE16F10478
:103D7000B1F695CF019631968430910509F0B3CF15
:103D8000C7CF0E94290BE0CF0E949F0EDDCFCF93BB
:103D9000DF9310923C0610923B060E94CF260E94B1
:103DA00016040BDFC0919E01D0919F0119821882E9
:103DB0000E944513F89435DF2881398181E0232B57
:103DC00009F080E080933B067894789480913B06DC
:103DD000811109C00E947C16FADEF89490E080E020
:103DE000DF91CF9108952881398181E0232B09F457
:103DF00080E080933C0690913C0681E0911180E048
:103E000080933B062DDFE2CF5058BB27AA270ED068
:103E100075C166D130F06BD120F031F49F3F11F4C1
:103E20001EF45BC10EF4E095E7FB51C1E92F77D199
:103E300080F3BA17620773078407950718F071F4C7
:103E40009EF58FC10EF4E0950B2EBA2FA02D0B011D
:103E5000B90190010C01CA01A0011124FF27591BCF
:103E600099F0593F50F4503E68F11A16F040A22FD5
:103E7000232F342F4427585FF3CF46953795279546
:103E8000A795F0405395C9F77EF41F16BA0B620B45
:103E9000730B840BBAF09150A1F0FF0FBB1F661F8C
:103EA000771F881FC2F70EC0BA0F621F731F841FCF
:103EB00048F4879577956795B795F7959E3F08F0F5
:103EC000B3CF9395880F08F09927EE0F97958795B4
:103ED0000895D9D008F481E008950CD00FC107D11E
:103EE00040F0FED030F021F45F3F19F0F0C05111E6
:103EF00039C1F3C014D198F39923C9F35523B1F311
:103F0000951B550BBB27AA2762177307840738F048
:103F10009F5F5F4F220F331F441FAA1FA9F333D0A7
:103F20000E2E3AF0E0E830D091505040E695001C5B
:103F3000CAF729D0FE2F27D0660F771F881FBB1F17
:103F4000261737074807AB07B0E809F0BB0B802DF1
:103F5000BF01FF2793585F4F2AF09E3F510568F03D
:103F6000B6C000C15F3FECF3983EDCF386957795D1
:103F70006795B795F7959F5FC9F7880F911D96953F
:103F8000879597F90895E1E0660F771F881FBB1F9B
:103F9000621773078407BA0720F0621B730B840B48
:103FA000BA0BEE1F88F7E095089504D06894B1111C
:103FB000D9C00895BCD088F09F5790F0B92F9927A9
:103FC000B751A0F0D1F0660F771F881F991F1AF024
:103FD000BA95C9F712C0B13081F0C3D0B1E00895ED
:103FE000C0C0672F782F8827B85F39F0B93FCCF36E
:103FF000869577956795B395D9F73EF4909580951A
:10400000709561957F4F8F4F9F4F0895E89409C039
:1040100097FB3EF490958095709561957F4F8F4FFB
:104020009F4F9923A9F0F92F96E9BB279395F69511
:10403000879577956795B795F111F8CFFAF4BB0F8F
:1040400011F460FF1BC06F5F7F4F8F4F9F4F16C0F3
:10405000882311F096E911C0772321F09EE8872F7D
:10406000762F05C0662371F096E8862F70E060E039
:104070002AF09A95660F771F881FDAF7880F9695B2
:10408000879597F90895990F0008550FAA0BE0E856
:10409000FEEF16161706E807F907C0F0121613060A
:1040A000E407F50798F0621B730B840B950B39F44A
:1040B0000A2661F0232B242B252B21F408950A26B0
:1040C00009F4A140A6958FEF811D811D089597F9F0
:1040D0009F6780E870E060E008959FEF80EC0895AE
:1040E00000240A94161617061806090608950024D7
:1040F0000A9412161306140605060895092E039451
:10410000000C11F4882352F0BB0F40F4BF2B11F4C4
:1041100060FF04C06F5F7F4F8F4F9F4F089557FD23
:104120009058440F551F59F05F3F71F04795880F25
:1041300097FB991F61F09F3F79F0879508951216BC
:1041400013061406551FF2CF4695F1DF08C0161668
:1041500017061806991FF1CF869571056105089419
:104160000895E894BB2766277727CB0197F9089530
:104170008ADF08F48FEF08950BD0C0CFB1DF28F0AD
:10418000B6DF18F0952309F0A2CFA7CF1124EACF0C
:10419000C6DFA0F3959FD1F3950F50E0551F629FA6
:1041A000F001729FBB27F00DB11D639FAA27F00D90
:1041B000B11DAA1F649F6627B00DA11D661F829FB7
:1041C0002227B00DA11D621F739FB00DA11D621F9C
:1041D000839FA00D611D221F749F3327A00D611DB9
:1041E000231F849F600D211D822F762F6A2F11249B
:1041F0009F5750408AF0E1F088234AF0EE0FFF1FEE
:10420000BB1F661F771F881F91505040A9F79E3F24
:10421000510570F05CCFA6CF5F3FECF3983EDCF326
:10422000869577956795B795F795E7959F5FC1F761
:10423000FE2B880F911D9695879597F9089590E02C
:1042400080E0089580916C0290916D02891B990B1A
:10425000089590916D0280916C022FEF3FEF9817B7
:1042600048F4E92FF0E0E259FD4F208130E09F5FF4
:1042700090936D02C9010895E0916D0280916C02E6
:10428000E81730F4F0E0E259FD4F808190E00895A6
:104290008FEF9FEF08950895CF93DF93EC01E091A6
:1042A0004402F09145023097F1F090916D028091B7
:1042B0006C029817C0F090E0292F30E026173707DE
:1042C00054F4DE01A20FB31F4C9122593D4FD90186
:1042D0004C939F5FF1CF10926D0260936C02CB0103
:1042E000DF91CF910994DF91CF910895E09146023B
:1042F000F0914702309729F010924A021092490239
:1043000009940895CF93DF931F92CDB7DEB76983E9
:10431000209148022223F9F020914902203258F0DE
:1043200021E030E0FC013383228390E080E00F90B5
:10433000DF91CF91089580914A02E82FF0E0E55B8C
:10434000FD4F998190838F5F80934A028093490249
:1043500081E090E0ECCF61E0CE01019607D1F8CF8B
:10436000CF92DF92EF92FF920F931F93CF93DF9341
:104370007C01CB018A0120914802222389F0EB01C4
:104380006B01C40ED51ECC15DD0561F06991D70116
:10439000ED91FC910190F081E02DC7010995F3CFDB
:1043A000642FE4D0C801DF91CF911F910F91FF904E
:1043B000EF90DF90CF90089510926D0210926C02F2
:1043C00010924A021092490297D086E791E2FAD001
:1043D0008CE491E2F2C0CB01BA01B5C081E08093D8
:1043E000480260936B0210924A02109249020895AB
:1043F0000F93062F21E0409149026BE472E0809117
:104400006B02DCD110924A021092490210924802CB
:104410000F9108954F925F926F927F92AF92BF92E9
:10442000CF92EF92FF920F931F93CF93DF935C0194
:10443000F62ED42F28013901EE2009F1CFDFCE2D41
:10444000C43008F0C3E0C150B8F028E0C29FC001FA
:104450001124A301920104C05695479537952795DD
:104460008A95D2F7B901D501ED91FC910190F081C7
:10447000E02DC5010995E7CF60E0C501B9DF4D2FFB
:10448000D13208F040E22C2D6EE672E08F2DB9D0CB
:1044900010926D0280936C02DF91CF911F910F916A
:1044A000FF90EF90CF90BF90AF907F906F905F9014
:1044B0004F900895CF92EF920F931F93C22EE12C4D
:1044C00000E010E09801A6DF1F910F91EF90CF90D0
:1044D000089521E0EFCFE8E3F2E01382128288EE44
:1044E00093E0A0E0B0E084839583A683B78387ED53
:1044F00091E09183808308951092010381E080937D
:10450000FF021092FE0261E082E0C8D561E083E024
:10451000C5D5E9EBF0E080818E7F808380818D7F3F
:10452000808388E48093B80085E48093BC0008957C
:10453000ECEBF0E080818A7B808360E082E0AED5A6
:1045400060E083E0ABC59B01AC0160E074E284EF06
:1045500090E00E945332205131094109510956958A
:104560004795379527952093B80008952091B0027C
:10457000260F3327331F21323105ECF4209101033C
:10458000FC0190E080E0243069F082E00895A09181
:10459000B0022191AC014E545D4FA40FB52FB11D57
:1045A0002C930196861798F38091B002680F609360
:1045B000B00280E0089581E008959093F502809321
:1045C000F40208959093F7028093F602089585EC23
:1045D0008093BC00109201030895CF93DF9391E084
:1045E0009093F902882351F0C091B800D091BA009D
:1045F0009FDF82DFD093BA00C093B800DF91CF91E4
:1046000008954F925F926F927F928F929F92AF9296
:10461000BF92CF92DF92EF92FF920F931F93CF93AF
:10462000DF93D82F162F072FC42FB22E413208F058
:104630009DC059D36B017C0180910103811173C02E
:1046400081E080930103B092FF029FEF90938E026E
:104650001092D3029C0F9093D2028093000380911A
:104660000003DD0FD82BD09300038091FE02813030
:1046700009F07EC01092FE0236D36B017C0180915E
:1046800000038093BB008091FA029091FB02A091FD
:10469000FC02B091FD02892B8A2B8B2B99F023D33E
:1046A0008090FA029090FB02A090FC02B090FD0274
:1046B0006C197D098E099F0986169706A806B9060A
:1046C00008F451C08091BC0083FDD9CF85EC809364
:1046D000BC0009D36B017C0180910103813009F496
:1046E00049C08091D3028C1710F4C091D302A4ED7D
:1046F000B2E0912FE12FF02F8E2F891B8C1708F439
:104700005AC08C2FDF91CF911F910F91FF90EF90A6
:10471000DF90CF90BF90AF909F908F907F906F90E1
:104720005F904F9008958091FA029091FB02A091C2
:10473000FC02B091FD02892B8A2B8B2B09F47CCFD4
:10474000D2D24090FA025090FB026090FC0270902E
:10475000FD026C197D098E099F09461657066806E9
:10476000790608F069CF8091F80237DFC0E0C9CF41
:1047700085EEADCF8091FA029091FB02A091FC02F0
:10478000B091FD02892B8A2B8B2B09F4A5CFABD2DC
:104790008090FA029090FB02A090FC02B090FD0283
:1047A0006C197D098E099F0986169706A806B90619
:1047B00008F092CFD8CF8D9181939ECF4F925F9288
:1047C0006F927F928F929F92AF92BF92EF92FF92E1
:1047D0000F931F93CF93DF93413208F0D2C0F22E94
:1047E000D42FE72E162FC82F7ED24B015C0180916B
:1047F000010381116DC082E0809301030093FF02E9
:104800008FEF80938E021092D302D093D202912F19
:10481000A4EDB2E0E12FFE2D8E2F891B8D1708F439
:104820008AC01092000380910003CC0FC82BC09364
:1048300000038091FE02813009F080C01092FE02D8
:1048400052D24B015C01809100038093BB008091A8
:10485000FA029091FB02A091FC02B091FD02892B1B
:104860008A2B8B2B99F03FD20091FA021091FB0218
:104870002091FC023091FD02681979098A099B098F
:10488000061717072807390708F442C08091BC00B3
:1048900083FDD9CF85EC8093BC0025D24B015C0110
:1048A000FF2029F080910103823009F449C08091F2
:1048B0008E028F3F09F467C080918E02803209F426
:1048C00064C080918E02803309F461C084E024C00A
:1048D0008091FA029091FB02A091FC02B091FD023E
:1048E000892B8A2B8B2B09F482CFFDD14090FA02C1
:1048F0005090FB026090FC027090FD0268197909EB
:104900008A099B09461657066806790608F06FCF94
:104910008091F80262DE85E0DF91CF911F910F91C7
:10492000FF90EF90BF90AF909F908F907F906F908F
:104930005F904F90089581918D936ECF85EEABCFB0
:104940008091FA029091FB02A091FC02B091FD02CD
:10495000892B8A2B8B2B09F4A3CFC5D10091FA02A6
:104960001091FB022091FC023091FD026819790937
:104970008A099B09061717072807390708F090CFFF
:10498000C7CF81E0C9CF80E0C7CF82E0C5CF83E049
:10499000C3CF85ED8093BC008091FA029091FB0219
:1049A000A091FC02B091FD020796A11DB11D23E06C
:1049B000B695A795979587952A95D1F72091BC0034
:1049C00024FD03C01092010308954091FA02509112
:1049D000FB026091FC027091FD02452B462B472B98
:1049E00069F30097A105B10541F025E32A95F1F798
:1049F00000000197A109B109E1CF8091F802EDCD46
:104A00001F920F920FB60F9211242F933F934F9343
:104A10005F936F937F938F939F93AF93BF93EF9326
:104A2000FF938091B900887F803609F44AC008F06E
:104A30003DC0883209F4A6C018F5803109F49AC047
:104A4000B8F4882309F4F6C0883009F493C0FF91C4
:104A5000EF91BF91AF919F918F917F916F915F91F6
:104A60004F913F912F910F900FBE0F901F9018956F
:104A7000883109F487C0803251F780938E0214C0C8
:104A8000803409F49CC040F48033B9F38833F9F6DC
:104A900080938E029CDDDBCF803509F484C088359D
:104AA00009F495C0883499F674DFD1CF883909F4B8
:104AB0008CC038F5883729F050F4883611F08037EB
:104AC00031F683E08093010310928F0257C088383B
:104AD00009F47BC0803919F0803809F0B8CF809193
:104AE0008F02803208F071C0E0918F0281E08E0F5A
:104AF00080938F028091BB00F0E0E057FD4F8083F0
:104B00003DC0803B39F0E0F4803A09F479C0883A3E
:104B100009F09DCF84E0809301031092B1021092BE
:104B2000B002E091F602F091F70209958091B0028F
:104B300081110FC081E08093B0021092B20209C0CF
:104B4000803C09F475C0883C09F472C0883B09F0C8
:104B50007ECFE091B10281E08E0F8093B102F0E050
:104B6000EE54FD4F80818093BB009091B102809103
:104B7000B00229C0809100038093BB0085EC809334
:104B8000BC0065CF9091D3028091D202981758F55E
:104B9000E091D30281E08E0F8093D302F0E0EC52DB
:104BA000FD4F8081E9CFE091D30281E08E0F8093A9
:104BB000D3028091BB00F0E0EC52FD4F80839091D6
:104BC000D3028091D2029817C8F285E8D8CFE0913D
:104BD000D30281E08E0F8093D3028091BB00F0E07E
:104BE000EC52FD4F80838091FF0281115DCF81E007
:104BF0008093FE0284EA8093BC001092010327CFC9
:104C0000E6DC80918F02803230F4E0918F02F0E098
:104C1000E057FD4F108260918F0270E0E091F40246
:104C2000F091F50280E992E0099510928F020FCF82
:104C300085ECE1CF10928E0237CF1F920F920FB604
:104C40000F9211242F933F938F939F93AF93BF9312
:104C50008091030390910403A0910503B091060392
:104C60003091020323E0230F2D3758F50196A11D43
:104C7000B11D209302038093030390930403A09338
:104C80000503B09306038091070390910803A09158
:104C90000903B0910A030196A11DB11D809307037A
:104CA00090930803A0930903B0930A03BF91AF91B7
:104CB0009F918F913F912F910F900FBE0F901F905A
:104CC000189526E8230F0296A11DB11DD2CF2FB74C
:104CD000F89460910303709104038091050390910F
:104CE00006032FBF08953FB7F89480910703909172
:104CF0000803A0910903B0910A0326B5A89B05C03B
:104D00002F3F19F00196A11DB11D3FBFBA2FA92F4A
:104D1000982F8827BC01CD01620F711D811D911D47
:104D200042E0660F771F881F991F4A95D1F70895B3
:104D30008F929F92AF92BF92CF92DF92EF92FF92AB
:104D40006B017C01D0DF4B015C01C114D104E10493
:104D5000F104E1F00E949A31C6DF681979098A09E5
:104D60009B09683E73408105910578F321E0C21AE2
:104D7000D108E108F10888EE880E83E0981EA11C96
:104D8000B11CC114D104E104F10431F7FF90EF909C
:104D9000DF90CF90BF90AF909F908F9008957894C0
:104DA00084B5826084BD84B5816084BD85B5826030
:104DB00085BD85B5816085BDEEE6F0E080818160CE
:104DC0008083E1E8F0E010828081826080838081CE
:104DD00081608083E0E8F0E0808181608083E1E9A8
:104DE000F0E0808182608083808181608083E0E95F
:104DF000F0E0808181608083E1ECF0E0808184607C
:104E00008083808182608083808181608083E3EC05
:104E1000F0E0808181608083E0ECF0E0808182605E
:104E20008083E2ECF0E0808181608083EAE7F0E05B
:104E300080818460808380818260808380818160C2
:104E4000808380818068808308951F93CF93DF9350
:104E5000182FEB0161E0E6D0209731F460E0812F5C
:104E6000DF91CF911F911AC1CF3FD10511F461E0BD
:104E7000F6CFE12FF0E0E455FF4FE491E150EF3041
:104E800008F07FC0F0E0E95BF84D0C9475325627CE
:104E90005E2763276D277727C127C127C127812771
:104EA0008B2795279F27AC27C127B42784B5806817
:104EB00084BDC7BDDF91CF911F91089584B58062F5
:104EC00084BDC8BDF7CF809180008068809380004A
:104ED000D0938900C0938800EDCF809180008062DC
:104EE00080938000D0938B00C0938A00E3CF8091A1
:104EF0008000886080938000D0938D00C0938C00E8
:104F0000D9CF80919000806880939000D0939900D1
:104F1000C0939800CFCF80919000806280939000E2
:104F2000D0939B00C0939A00C5CF80919000886079
:104F300080939000D0939D00C0939C00BBCF809144
:104F4000C00080688093C0008091C0008F7B8093F8
:104F5000C000C093CF00AECF8091C000806280932C
:104F6000C000C093D000A6CF8091C200886080931B
:104F7000C2008091C2008B7F8093C200C093D20098
:104F800099CFC038D1050CF072CF68CF81508F30E7
:104F900008F047C0E82FF0E0E053F84D0C9475326C
:104FA000ED27F127DF27E527E92711281128112808
:104FB000F427FA27FE270228082811280C288091B8
:104FC00080008F77809380000895809180008F7D8E
:104FD000F9CF80918000877FF5CF84B58F7784BD2E
:104FE000089584B58F7DFBCF809190008F7780935B
:104FF00090000895809190008F7DF9CF809190006E
:10500000877FF5CF8091C0008F778093C00008958F
:105010008091C0008F7DF9CF8091C200877F8093FF
:10502000C2000895CF93DF9390E0FC01E553FF4F5A
:10503000249186519F4FFC0184918823C9F090E010
:10504000880F991FFC01EB5DFE4FA591B491FC0107
:10505000E95EFE4FC591D49161110DC09FB7F894E0
:105060008C91209582238C938881282328839FBF4D
:10507000DF91CF910895623051F49FB7F8943C913D
:10508000822F809583238C93E8812E2BEFCF8FB7CF
:10509000F894EC912E2B2C938FBFEACF1F93CF93D4
:1050A000DF93282F30E0F901E455FF4F8491F90197
:1050B000E553FF4FD491F901E651FF4FC491CC2342
:1050C000A1F0162F811162DFEC2FF0E0EE0FFF1F31
:1050D000E95EFE4FA591B4918FB7F894EC91111150
:1050E00008C0D095DE23DC938FBFDF91CF911F9155
:1050F0000895DE2BF8CFCF93DF93282F30E0F9010E
:10510000E455FF4F8491F901E553FF4FD491F90124
:10511000E651FF4FC491CC2399F0811137DFEC2F7A
:10512000F0E0EE0FFF1FE75FFE4FA591B491EC9109
:10513000ED2381E090E009F480E0DF91CF910895C4
:1051400080E090E0FACFCF93DF931F92CDB7DEB728
:105150006983DC01ED91FC910280F381E02D41E057
:1051600050E0BE016F5F7F4F09950F90DF91CF91A7
:105170000895CF93DF93EC018C859D8597FF04C044
:1051800082E0CFD59D878C878C859D85DF91CF91DF
:10519000089583E0DCD590E0089583E00C94FF301F
:1051A000FC018485958597FD05C082E06BD590E074
:1051B0000196089582E066D590E00895FC0184850B
:1051C000958597FD05C02FEF3FEF3587248708951C
:1051D00082E0A7C5CF93DF93EC01809196018823ED
:1051E00029F083E0CDD51816190634F081E090E05F
:1051F0009B838A8380E090E0DF91CF910895EEEF6A
:10520000FFE72591349181E02B3F3C4D09F080E090
:105210000895FC0190819E5F908342E450E063E337
:1052200071E080E85DC6FC0181819081913A59F47A
:10523000813209F080C047E050E06FE871E080E023
:105240004FD681E00895913209F075C0833269F438
:1052500082819381B0E0A0E080938B0190938C01D8
:10526000A0938D01B0938E01ECCF803231F467E0D2
:1052700070E08FE891E059D6E4CF823211F7828155
:1052800080939601BCDFE0E0F8E0882311F0EEEFB8
:10529000FAE080918F0190919001A0919101B091DD
:1052A0009201803B9440A105B105D9F4809196010B
:1052B00080FD17C0EE3F8AE0F80771F587E797E7B2
:1052C000918380838091600080935B0388E19BE001
:1052D0000FB6F894A895809360000FBE909360007D
:1052E000B0CF808191818737974709F0AACFA895E1
:1052F0008091600088618093600080915B0380935F
:105300006000EE3F8AE0F80789F08091FE0A9091F4
:10531000FF0A9183808395CF808191818737980799
:1053200069F29093FF0A8093FE0AC8CF1092FF0A99
:105330001092FE0A86CF80E008952FEF3FEFFC0128
:10534000358724870895EBE0F3E01382128288EE1C
:1053500093E0A0E0B0E084839583A683B78389EED1
:1053600091E0918380838FEF9FEF958784870895E5
:10537000FC01918D228D892F90E0805C9F4F821BD4
:1053800091098F7399270895FC01918D828D98174B
:1053900031F0828DE80FF11D858D90E008958FEF3B
:1053A0009FEF0895FC01918D828D981761F0A28D79
:1053B000AE0FBF2FB11D5D968C91928D9F5F9F7335
:1053C000928F90E008958FEF9FEF0895FC01538D29
:1053D000448D252F30E0842F90E0821B930B5417CF
:1053E00010F0CF96089501970895FC01A48DA80FA1
:1053F000B92FB11DA35ABF4F2C91848D90E0019617
:105400008F739927848FA689B7892C93A089B18936
:105410008C9182748C93938D848D981306C002882E
:10542000F389E02D80818F7D80830895CF93DF9372
:10543000EC01888D8823B1F0AA89BB89E889F989B4
:105440008C9185FD03C0808186FD0CC00FB607FCE2
:10545000F7CF8C9185FFF2CF808185FFEDCFCE0114
:10546000C4DFEACFDF91CF910895EF92FF920F93BF
:105470001F93CF93DF93EC0181E0888F9B8D8C8D00
:10548000981319C0E889F989808185FF14C09FB7F6
:10549000F894EE89FF896083E889F98980818274B4
:1054A00080839FBF81E090E0DF91CF911F910F91AA
:1054B000FF90EF900895F62E0B8D10E00F5F1F4FB9
:1054C0000F731127E02E8C8D8E110BC00FB607FCC9
:1054D000FACFE889F989808185FFF5CFCE0185DF94
:1054E000F2CFEB8DEC0FFD2FF11DE35AFF4FF08251
:1054F0009FB7F8940B8FEA89FB8980818062D0CFB7
:10550000CF92DF92EF92FF921F93CF93DF93EC0144
:105510006A017B01122FE889F98982E08083C11436
:1055200081EED806E104F10499F060E079E08DE3C2
:1055300090E0A7019601B7D72150310941095109DF
:105540005695479537952795211580E1380790F0B6
:10555000E889F989108260E874E88EE190E0A7019B
:105560009601A1D721503109410951095695479516
:1055700037952795EC85FD853083EE85FF85208363
:10558000188EEC89FD891083EA89FB89808180610E
:105590008083EA89FB89808188608083EA89FB892E
:1055A000808180688083EA89FB8980818F7D808308
:1055B000DF91CF911F91FF90EF90DF90CF900895F2
:1055C0001F920F920FB60F9211242F938F939F93D8
:1055D000EF93FF93E0916C03F0916D038081E09174
:1055E0007203F091730382FD1BC09081809175035B
:1055F0008F5F8F7320917603821741F0E0917503DE
:10560000F0E0E45AFC4F958F80937503FF91EF9182
:105610009F918F912F910F900FBE0F901F90189513
:105620008081F4CF1F920F920FB60F9211242F9307
:105630003F934F935F936F937F938F939F93AF931A
:10564000BF93EF93FF938CE593E0CFDEFF91EF9153
:10565000BF91AF919F918F917F916F915F914F918A
:105660003F912F910F900FBE0F901F901895ECE572
:10567000F3E01382128288EE93E0A0E0B0E084832E
:105680009583A683B7838BEF91E0918380838DEC24
:1056900090E0958784878CEC90E09787868788ECEC
:1056A00090E0918B808B89EC90E0938B828B8AECDD
:1056B00090E0958B848B8EEC90E0978B868B118E8F
:1056C000128E138E148E0895AF92BF92CF92DF92F6
:1056D000EF92FF920F931F93CF93DF936C017B01A7
:1056E0008B01040F151FEB015E01AE18BF08C01738
:1056F000D10759F06991D601ED91FC910190F081AB
:10570000E02DC6010995892B79F7C501DF91CF916D
:105710001F910F91FF90EF90DF90CF90BF90AF90CF
:105720000895FB0101900020E9F73197AF01461B76
:10573000570BDC01ED91FC910280F381E02D09947F
:105740006115710509F0EDCF90E080E00895DC016E
:10575000ED91FC910190F081E02D099469E072E0F7
:10576000E0CF8F929F92AF92BF92EF92FF920F93F2
:105770001F93CF93DF93CDB7DEB7A1970FB6F89401
:10578000DEBF0FBECDBF7C01FA01CB0119A22230D2
:1057900008F42AE08E010F5D1F4F822E912CB12C50
:1057A000A12CBF01A50194017ED6F901CA016A307E
:1057B00004F5605DD8016E938D01232B242B252BDE
:1057C00081F790E080E0109719F0BD01C701A9DFD3
:1057D000A1960FB6F894DEBF0FBECDBFDF91CF917B
:1057E0001F910F91FF90EF90BF90AF909F908F907F
:1057F0000895695CDFCFCF92DF92EF92FF920F9313
:105800001F93CF93DF932115310581F4DC01ED91D6
:10581000FC910190F081E02D642FDF91CF911F91D9
:105820000F91FF90EF90DF90CF9009942A303105CF
:10583000F1F42AE077FF1BC06A017B01EC016DE205
:1058400086DF8C0144275527BA014C195D096E0982
:105850007F092AE0CE0185DF800F911FDF91CF9174
:105860001F910F91FF90EF90DF90CF900895DF91FF
:10587000CF911F910F91FF90EF90DF90CF9071CF5C
:105880009A01AB01770F660B770BB5CF0F931F9380
:10589000CF93DF93EC01F4DF8C01CE015FDF800F4B
:1058A000911FDF91CF911F910F9108950F931F9337
:1058B000CF93DF93EC019FDF8C01CE014FDF800F90
:1058C000911FDF91CF911F910F91089521153105FF
:1058D00041F4DC01ED91FC910190F081E02D642F09
:1058E00009943FCF9A01462F50E070E060E0EECF80
:1058F0000F931F93CF93DF93EC01F4DF8C01CE0164
:105900002DDF800F911FDF91CF911F910F9108958F
:105910009A01AB0170E060E0D9CF0F931F93CF9352
:10592000DF93EC01F5DF8C01CE0118DF800F911FB2
:10593000DF91CF911F910F9108950F931F93CF93F4
:10594000DF93EC01C3DF8C01CE0108DF800F911FD4
:10595000DF91CF911F910F9108952F923F924F9217
:105960005F926F927F928F929F92AF92BF92CF92EF
:10597000DF92EF92FF921F93CF93DF93EC016A01C6
:105980007B01722EAB019601CB01B601B4D56CE060
:1059900072E0811125C046015701E894B7F82FEF56
:1059A0003FEF4FE75FE7C501B401A5D581110CC0FA
:1059B0002FEF3FEF4FE75FE7C501B4010E94691F7A
:1059C00060E172E0181664F02FEF3FEF4FE75FE4FD
:1059D000C701B6010E94B8201816ACF464E172E069
:1059E000CE01DF91CF911F91FF90EF90DF90CF908C
:1059F000BF90AF909F908F907F906F905F904F90EF
:105A00003F902F908ECE2FEF3FEF4FE75FECC70117
:105A1000B6010E94691F87FDE1CF20E030E0A901B7
:105A2000C701B6010E94691F312C212C87FF08C0D5
:105A30006DE2CE018CDE1C01F7FAF094F7F8F094D9
:105A400010E060E070E080E09FE3711641F020E03C
:105A500030E040E251E40E946D1F1F5FF6CFA701C6
:105A600096010E94051F2B013C010E94DA1F4B0189
:105A70005C012AE0BC01A401CE0173DE7C01E20CD2
:105A8000F31C1123A1F1C501B4010E9406209B0162
:105A9000AC01C301B2010E94041F4B015C016EE224
:105AA000CE0155DEE80EF91E115008F120E030E07D
:105AB00040E251E4C501B4010E94BC202B013C012D
:105AC0000E94DA1F4B014AE050E0CE0121DFE80ED0
:105AD000F91EB40190E080E00E9406209B01AC0119
