:10000000D5C00000FBC00000F9C00000F7C0000030
:10001000F5C00000F3C00000F1C00000EFC0000018
:10002000EDC00000EBC000000C941B350C94D833DD
:10003000E5C00000E3C00000E1C00000DFC0000038
:10004000DDC00000DBC00000D9C00000D7C0000048
:100050000C94A421D3C00000D1C000000C94D92975
:10006000CDC000000C949D2E0C94CF2EC7C0000074
:10007000C5C00000C3C00000C1C00000BFC0000078
:10008000BDC00000BBC00000B9C00000B7C0000088
:100090000C94BC28B3C00000B1C00000AFC0000089
:1000A000ADC00000ABC00000A9C00000000000020D
:1000B00000090F0000030401000C00000000000014
:1000C0000000000000000000000000040802011011
:1000D0004080401020408040800802040180402081
:1000E0001002011080102040402004040404040386
:1000F00004050202020204030202020206060606C8
:100100000606040402020204040000000023002684
:100110000029002C002F0000000000250028002BE3
:10012000002E00310000000000240027002A002DCE
:10013000003000080B000202020000090400000168
:10014000020200000524001001052401010104241D
:10015000020605240600010705810310004009047A
:100160000100020A00000007050202400000070526
:10017000830240000012010002EF020140412337D8
:100180008000010102030141726475696E6F204CA9
:100190004C430041726475696E6F204D6963726FE4
:1001A00000040309040027265F2DF42E11241FBE2E
:1001B000CFEFDAE0DEBFCDBF12E0A0E0B1E0E6E3D2
:1001C000FDE602C005900D92AC30B107D9F726E0EC
:1001D000ACE0B2E001C01D92AE3BB207E1F710E027
:1001E000C6EDD0E004C02197FE010E948736C33DD2
:1001F000D107C9F70E9483220C94993601CF61116F
:1002000002C00C94CE2B6130E1F362E0FACF66239A
:1002100019F061E00C940A2C60E0FCCF0E94372CAE
:1002200021E0019709F020E0822F0895CF92DF921C
:10023000EF92FF926B017C01C114D104E104F1043F
:1002400069F480910001811109C0809102019091AF
:1002500003010E94982581E080930001C601880F68
:10026000991F880F991F80509F4FFF90EF90DF904C
:10027000CF900895009781F0FC012181211104C0E5
:1002800040EA56E861E070E0FC01828193810E94BF
:10029000A72590E080E0089588E090E008954F92CF
:1002A0005F926F927F928F929F92AF92BF92CF9206
:1002B000DF92EF92FF920F931F93CF93DF930097FC
:1002C000C9F1280139017A01EC01402F8A819B8113
:1002D0000E9425268A819B81DC01ED91FC9100849E
:1002E000F185E02D0995892B01F16701812C912C75
:1002F00054018A819B81DC01ED91FC910084F185A0
:10030000E02D0995892B91F184149504A604B70476
:1003100069F18A819B81DC01ED91FC910284F38576
:10032000E02D09958F3F9807C1F484E0F701119201
:100330008A95E9F788E090E0DF91CF911F910F91C6
:10034000FF90EF90DF90CF90BF90AF909F908F90F5
:100350007F906F905F904F900895FFEF8F1A9F0AE4
:10036000AF0ABF0AD6018D936D01C3CF90E080E044
:10037000E3CF8F929F92AF92BF92CF92DF92EF9294
:100380000F931F93CF93DF930097F1F06A01EC0175
:100390008A819B810E94AA258A819B81DC01ED9143
:1003A000FC910280F381E02DA801B60109958A81B4
:1003B0009B8160E0E11001C061E00E94B4258823C8
:1003C00089F08250823088F088E090E0DF91CF9110
:1003D0001F910F91EF90DF90CF90BF90AF909F90C3
:1003E0008F90089590E080E0F1CF84E090E0EECF30
:1003F0000895009731F0019741F480E593E00C9463
:100400003C2E8FEF92E00C94592D08958DEE93E0E1
:100410000C9498358F929F92AF92BF92CF92DF92B9
:10042000EF92FF926B017C010E94232A4B015C0139
:100430000E94232A681979098A099B09C616D706DA
:10044000E806F906A8F7FF90EF90DF90CF90BF90F5
:10045000AF909F908F9008950C94232ACF92DF92B3
:10046000EF92FF92CF93882351F16A017B01CFEF86
:10047000C80F20E030E0A901CB01B6010E9425237E
:1004800018168CF0C701B60190580E9496239B0164
:10049000AC016C2F70E090E080E0CF91FF90EF9086
:1004A000DF90CF90B2C0C701B6010E9491238C2F7C
:1004B000CF91FF90EF90DF90CF900C94E12ACF91F5
:1004C000FF90EF90DF90CF9008950F931F938B01D3
:1004D0009C0183E036952795179507958A95D1F766
:1004E000045F1D4F462F477021E030E0F90102C044
:1004F000EE0FFF1F4A95E2F7AF01F8012081242398
:10050000CB010196211102C090E080E01F910F9174
:1005100008950F931F938B019C0183E036952795D7
:10052000179507958A95D1F7677081E090E001C033
:10053000880F6A95EAF7F801E45FFD4F2081452BAB
:1005400031F48095822380831F910F910895822B2F
:10055000FACF2F923F924F925F926F927F928F923B
:100560009F92AF92BF92CF92DF92EF92FF920F9342
:100570001F93CF93DF93D62EC72E782E692E490175
:100580005A01280161E08D2D0E94CE2BCD2DDC2D4E
:100590008E010F5F1F4FA8016D2D7C2D872D962D8D
:1005A000B8DF20E030E0A901C201B7010E94742445
:1005B000181664F4C201B7010E9496232B01C501ED
:1005C000B4010E949623A201CE0123D0C801DF917D
:1005D000CF911F910F91FF90EF90DF90CF90BF9040
:1005E000AF909F908F907F906F905F904F903F90D3
:1005F0002F900895882341F08150682F70E090E09B
:1006000080E050E040E085CF0895862FB9010C943A
:10061000E12A9C01FC01E455FF4FE491E150EF30E9
:10062000B8F4F0E0EA5EFC4F0C94873625032C0307
:100630002F0346035B032803280328037003870363
:100640009C03B103C4032803D00384B5806884BD30
:1006500060E0822F0C940A2C84B58062F8CF8091E0
:1006600080008C7F82608093800080918100807EFA
:100670008061682B609381005093870040938600CF
:1006800080918000806880938000E2CF809180001C
:100690008C7F82608093800080918100807E806169
:1006A000682B60938100509387004093860080916F
:1006B00080008062E8CF809180008C7F8260809390
:1006C000800080918100807E8061682B6093810032
:1006D0005093870040938600809180008860D3CF3C
:1006E000809190008C7F8260809390008091910037
:1006F000807E8061682B60939100509397004093B7
:10070000960080919000806880939000A1CF8091A6
:1007100090008C7F82608093900080919100807E19
:100720008061682B609391005093970040939600EE
:10073000809190008062E8CF809190008C7F8260F1
:100740008093900090919100907E9061692B6093CE
:10075000910050939700409396008091900088609C
:10076000D3CF8091C100807F682B6093C1004093FC
:10077000D1008091C00080688093C0008091C0004B
:100780008F7B8093C00064CF8091C100807F682BF5
:100790006093C1004093D1008091C0008062F1CF8E
:1007A0008091C100807F682B6093C1004093D1008D
:1007B0008091C20088608093C2008091C2008B7FCC
:1007C0008093C20045CFAB01BC018FEF92E00C9447
:1007D0008431AB01BC0180E593E00C9484318F92AD
:1007E0009F92AF92BF92CF92DF92EF92FF920F93C0
:1007F0001F93CF93DF93CDB7DEB77B014A01590139
:10080000CDB6DEB69B01220F331F4DB75EB7421B3C
:10081000530B0FB6F8945EBF0FBE4DBF0DB71EB79A
:100820000F5F1F4FE82FF0E0EE0FFF1FE85FFE4F56
:100830000190F081E02DC8010995F801D401E00E86
:10084000F11EEE15FF0519F081918D93FACF81E02D
:10085000F50180830FB6F894DEBE0FBECDBEDF91EA
:10086000CF911F910F91FF90EF90DF90CF90BF90AD
:10087000AF909F908F9008959F92AF92BF92CF922A
:10088000DF92EF92FF920F931F93CF93DF93CDB739
:10089000DEB7C054D1090FB6F894DEBF0FBECDBF8E
:1008A000B82E8B01942EA52E6901E82EF12CEE0CAA
:1008B000FF1CF701EC5FFE4F0190F081E02D0995E0
:1008C00080179107C9F49601492D5A2DBC018B2D33
:1008D00086DFC05CDF4F0FB6F894DEBF0FBECDBF22
:1008E000DF91CF911F910F91FF90EF90DF90CF900C
:1008F000BF90AF909F9008958017910748F4E92D1D
:10090000FA2D0E0F1F1FE017F10719F11192FBCFFF
:100910009801220F331F2817390728F09601492D17
:100920005A2DB801D4CFB8010E945136CB0101979E
:10093000809FB001819F700D909F700D1124F70171
:10094000E85FFE4F0190F081E02DCE010196099500
:10095000E5CFF6011082BDCF8FEF92E00C948C2C86
:1009600080E593E00C94742D882359F0813049F48C
:1009700026E030E040E855E260E070E081E090E0A1
:1009800038CD08954F925F926F927F928F929F928F
:10099000AF92BF92CF92EF92FF920F931F93CF939C
:1009A000DF93CDB7DEB72B013A01F02EB40130E072
:1009B0002830310511F424E030E00AE010E0CC20CA
:1009C00061F091E000E110E0C91639F0E2E008E0E2
:1009D00010E0CE1611F002E010E0882399F081308B
:1009E00009F4E1C0DF91CF911F910F91FF90EF903B
:1009F000CF90BF90AF909F908F907F906F905F90BF
:100A00004F900895F1101BC0269DA001279D500D09
:100A1000369D500D1124B2018FEF92E0DF91CF91FE
:100A20001F910F91FF90EF90CF90BF90AF909F904C
:100A30008F907F906F905F904F900C94A62C8FEFCB
:100A400092E00E945D2FE11014C0640C751C4614E6
:100A5000570441F2F20161912F01F1E0A8018FEFFB
:100A600092E0FF1203C00E942F30F1CF0E94353078
:100A7000EECF81E0E81215C091E0691A710808F420
:100A8000B1CFF201619171912F01F1E0A8018FEFD7
:100A900092E0FF1203C00E944530EECF0E944A3020
:100AA000EBCF82E0E81217C091E0691A710808F4F0
:100AB00099CFF20141915191619171912F01F1E032
:100AC00098018FEF92E0FF1203C00E942330ECCF19
:100AD0000E945A30E9CF83E0E81218C0640C751CFC
:100AE0004614570409F47ECFF20161912F01062EBE
:100AF000000C770BF1E0A8018FEF92E0FF1203C02A
:100B00000E94FD2FEDCF0E940330EACF84E0E8126F
:100B100015C091E0691A710808F464CFF20161917F
:100B200071912F01F1E0A8018FEF92E0FF1203C055
:100B30000E94FD2FEECF0E940330EBCF85E0E8123C
:100B400017C091E0691A710808F44CCFF201419185
:100B50005191619171912F01F1E098018FEF92E035
:100B6000FF1203C00E94B82FECCF0E941330E9CFD0
:100B700086E0E81237CFB12C91E0691A710808F4C9
:100B800031CFF20141915191619171912F01F1E0C9
:100B900095018FEF92E0FF1203C00E944731ECCF26
:100BA0000E944831E9CFF1101BC0269DA001279D6E
:100BB000500D369D500D1124B20180E593E0DF9178
:100BC000CF911F910F91FF90EF90CF90BF90AF907A
:100BD0009F908F907F906F905F904F900C94212FFB
:100BE00080E593E00E945D2FE11015C0640C751C38
:100BF0004614570409F4F6CEF20161912F01F1E099
:100C0000A80180E593E0FF1203C00E942F30F0CFCF
:100C10000E943530EDCF81E0E81215C091E0691AED
:100C2000710808F4DFCEF201619171912F01F1E0BA
:100C3000A80180E593E0FF1203C00E944530EECF8B
:100C40000E944A30EBCF82E0E81217C091E0691AA7
:100C5000710808F4C7CEF2014191519161917191EF
:100C60002F01F1E0980180E593E0FF1203C00E949C
:100C70002330ECCF0E945A30E9CF83E0E81218C04D
:100C8000640C751C6414750409F4ACCEF201619116
:100C90002F01062E000C770BF1E0A80180E593E010
:100CA000FF1203C00E94FD2FEDCF0E940330EACF58
:100CB00084E0E81215C091E0691A710808F492CE38
:100CC000F201619171912F01F1E0A80180E593E0BB
:100CD000FF1203C00E94FD2FEECF0E940330EBCF26
:100CE00085E0E81217C091E0691A710808F47ACE1D
:100CF000F20141915191619171912F01F1E09801BF
:100D000080E593E0FF1203C00E94B82FECCF0E9451
:100D10001330E9CF86E0E81265CEB12C91E0691A74
:100D2000710808F45FCEF201419151916191719186
:100D30002F01F1E0FF1214C0C11006C0950180E53B
:100D400093E00E944731EACFCB01BA010E94912380
:100D5000AB01BC01980180E593E00E94B82FDECF83
:100D6000C11006C0950180E593E00E944831D6CFBE
:100D7000CB01BA010E949123AB01BC01980180E52F
:100D800093E00E941330CACF81E08093CF0480911A
:100D900037068695809337068091360690E0019657
:100DA000811521E0920711F48FEF90E080933606D1
:100DB000089580914606823089F028F4813059F0F8
:100DC000109246060895853069F08630C9F781E0B3
:100DD0008093CF04F5CF1092D004F2CF81E08093BE
:100DE0003606EECF1092CF04EBCF809151068130C2
:100DF00019F08230B1F00895109252068091570494
:100E000090915804A0915904B0915A048093180607
:100E100090931906A0931A06B0931B0610925106E0
:100E20000895109253068091570490915804A09110
:100E30005904B0915A0480931C0690931D06A09308
:100E40001E06B0931F0681E08093C504E7CFFC0126
:100E500081E02091190230911A02232B09F080E0E1
:100E6000818381E020911B0230911C02232B09F029
:100E700080E0828381E020911D0230911E02232BAD
:100E800009F080E0838308958091190290911A02FD
:100E900001968A309105F8F490931A028093190212
:100EA00080911B0290911C020196843F21E09207E1
:100EB000B8F490931C0280931B0280911D029091C4
:100EC0001E020196883E23E0920778F490931E025A
:100ED00080931D02089510921A0210921902E0CF19
:100EE00010921C0210921B02E8CF10921E02109268
:100EF0001D020895CF92DF92EF92FF920F931F93FE
:100F0000CF936FE674E085E994E00E942D21C090B4
:100F10001001D0901101E0901201F0901301A7018F
:100F200096016091600570916105809162059091D4
:100F300063050E942523882341F0C0926005D0926A
:100F40006105E0926205F092630580E067D98093C5
:100F5000D804C0901C01D0901D01E0901E01F090BB
:100F60001F01A70196016091480570914905809184
:100F70004A0590914B050E942523882341F0C09299
:100F80004805D0924905E0924A05F0924B0584E06D
:100F900045D98093D604C0901401D0901501E090FB
:100FA0001601F0901701A701960160915405709108
:100FB000550580915605909157050E942523882359
:100FC00041F0C0925405D0925505E0925605F0923A
:100FD000570586E023D98093D7049091D804909345
:100FE000D1049091D6049093D2048093D30422EC40
:100FF000C22E24E0D22E31ECE32E34E0F32E07E3B0
:1010000014E025EC34E047E554E06FE674E081ED50
:1010100094E00E94F01B80914A068F3F19F08F5F89
:1010200080934A069091DC0480914706811107C0A5
:1010300081E08093470682E080934806D0C02091EB
:101040004806213041F08091C204223009F4D8C012
:1010500081111EC0F0CF911108C01092200610928D
:1010600021061092220610922306409120065091EC
:1010700021066091220670912306493C51056105C5
:10108000710508F49DC01092490683E080934806DC
:10109000C1E0992309F4C3C08091200690912106F4
:1010A000A0912206B09123060196A11DB11D809347
:1010B000200690932106A0932206B09323066C2F5E
:1010C0008BE0A5D82091430430914404409145041D
:1010D000509146046091370470913804809139042E
:1010E00090913A040E94C02260933B0470933C04A8
:1010F00080933D0490933E0495EDE92E94E0F92E03
:1011000004ED14E02FE334E041EC54E06AED74E0C8
:101110008BE394E00E94671F6091D5048AE077D842
:1011200065E070E080E090E0D0D98C019093930569
:1011300080939205C0903F04D0904004E090410419
:10114000F090420420E030E04FE753E4C701B601DD
:101150000E94252318160CF46BC020E030E0A90192
:10116000C701B6010E94742487FD69C0B701A601BA
:10117000C80174D96C2F81E14AD868EB74E085E925
:1011800094E00E94F01D2CEB34E04FE654E062EC5A
:1011900074E087E394E00E943C1E6DEB74E087E30B
:1011A00094E00E945B208091420681114CC081E056
:1011B000809342068093430687E08093410664C093
:1011C0008091C204811103C01092490634CF8091EE
:1011D0004A0620914906213051F4883C10F4C0E0C1
:1011E00058CF10924A0682E08093490651CF883C3E
:1011F00008F44ECF10924A0681E080934906EFCF63
:10120000813069F710922006109221061092220672
:10121000109223068093480610924A06EECF109251
:10122000200610922106109222061092230647CF24
:10123000C12CD12C8FE7E82E83E4F82E97CFC12C58
:10124000D12C760193CF90914306923009F441C09E
:10125000933009F468C0913009F060C18091BC04FA
:10126000882319F1813009F0A7CF82E080934306EB
:101270008091400690E00196811521E0920711F4DB
:101280008FEF90E0809340066091CF0488E00E9449
:1012900007016091D00489E0CF911F910F91FF90D9
:1012A000EF90DF90CF900C94070186E08093430687
:1012B0008091B80480933C068091B90480933D06E8
:1012C0008091BA0480933E068091BB0480933F06D0
:1012D000DBCF609141066623C1F0809140060E94F9
:1012E0004536992391F085E0809343068091BD04B3
:1012F00080933C068091BE0480933D068091BF049C
:1013000080933E068091C004E1CF84E08093430641
:1013100010923C0610923D0610923E0610923F0637
:1013200010924006B1CF80914406209155062223A9
:10133000A9F0823029F0853051F01092450603C0A3
:1013400081E08093D0041092440681E033CF31DDF8
:1013500081E08093CF0480933906F5CF823041F14C
:10136000A8F48130E1F08091390690913806981701
:1013700008F075C01EDD81E08093CF0480933906AC
:1013800082E080934406109256067ECF833001F1AE
:10139000843049F7909344069093450675CF85E0D5
:1013A0008093440689E0809346061092CF046CCF68
:1013B00080913B06883819F481E08093550681E0DE
:1013C0008093D00483E080934406809345065CCFED
:1013D00080915606882381F01092450681E0809323
:1013E00044061092D00490913B0690933706809368
:1013F00036068093390648CF80914506833009F040
:1014000043CF80913A068130E1F070F0823009F0EC
:101410003BCF8093450688E880933B0681E080932C
:10142000380610923A060AC081E08093450690E49F
:1014300090933B068093380680933A068093560635
:1014400023CF84E08093450680EC80933B0685E0C3
:101450008093380682E080933A0681E0EFCFE091F6
:101460004606E150E83008F048C0F0E0E65CF54F91
:101470000C948736420A480A4C0A4C0A510A600A00
:10148000650A6C0A1092D00486E080934606FCCE72
:1014900081E08093360686CF87E08093460674DC31
:1014A000F3CE1092CF0498E09093460690E0019618
:1014B0008F3F910509F008F49CCF8FEF90E099CF12
:1014C00081E08093CF0485E0E0CF809136068930BB
:1014D00008F468CF81E067CF92E0909346068823B6
:1014E00049F08150990B855C994FFC018081809374
:1014F0003706CACE90E080E0F6CF8091370680FDB7
:1015000006C084E0809346061092D004BDCE83E0EE
:101510008093460681E08093D004B6CE83E080932A
:10152000430684E08093440610923A0610925606D1
:1015300081E08093D0048093CF0410925506A4CE0E
:101540004F925F926F927F928F929F92AF92BF92D3
:10155000CF92DF92EF92FF92CF93DF938091340688
:10156000909135068F3F2FE1920728F401969093D2
:1015700035068093340680914D0681116CC081E060
:1015800080934D0682E080934E0683E08093C504ED
:101590008091D40481118DC38091240690912506F9
:1015A000A0912606B09127060196A11DB11D80933A
:1015B000240690932506A0932606B09327068091D3
:1015C000DA0481117FC38091280690912906A091A9
:1015D0002A06B0912B060196A11DB11D8093280605
:1015E00090932906A0932A06B0932B0680912C068F
:1015F00090912D06A0912E06B0912F060196A11D67
:10160000B11D80932C0690932D06A0932E06B093C7
:101610002F068091300690913106A0913206B0914C
:1016200033060196A11DB11D8093300690933106BB
:10163000A0933206B0933306DF91CF91FF90EF90E5
:10164000DF90CF90BF90AF909F908F907F906F90E2
:101650005F904F9008958091C204D0914E06D13092
:1016600009F0FDC2C0914F0681110BC0C23021F4B8
:10167000BCDB10924F0686CF109250061092540693
:10168000F8CFC130D9F0C23009F45BC18091540663
:10169000813009F4C9C2823009F4DAC2809134067B
:1016A000909135068835924008F472CF82E080939D
:1016B000540620E030E048EC52E4ABC28091DC04F8
:1016C000882311F11092500683E080934F0620E0AA
:1016D00030E048E452E460915704709158048091DE
:1016E000590490915A040E94C12260935704709348
:1016F00058048093590490935A041092350610921E
:101700003406C093540644CF80915006823009F4C9
:101710003FCF30F48130F1F181E08093500607C073
:10172000833009F484C08430B9F7C0935006C09068
:101730001006D0901106E0901206F09013068090EB
:101740000C0690900D06A0900E06B0900F06A50115
:101750009401C701B6010E94C12220E030E040E0C0
:101760005FE30E9478246093570470935804809339
:10177000590490935A04A5019401C701B6010E942F
:10178000C0226093140670931506809316069093FA
:101790001706FECEC0907304D0907404E0907504D8
:1017A000F09076048090570490905804A0905904CB
:1017B000B0905A0420E030E040E05FE360917001B7
:1017C0007091710180917201909173010E9478244F
:1017D0002B013C01AC019B01C501B4010E94C02258
:1017E0009B01AC01C701B6010E94742487FDD0CED5
:1017F000A3019201C501B4010E94C1229B01AC0169
:10180000C701B6010E94252318160CF4C1CE8091A1
:10181000DA048111BDCE1092240610922506109292
:1018200026061092270683E080935006B1CE809161
:10183000D404882341F010922406109225061092B9
:101840002606109227066091240670912506809145
:101850002606909127060E94C2236B017C0120E09E
:1018600030E040EA51E460916C0170916D0180912B
:101870006E0190916F010E9478249B01AC01C70119
:10188000B6010E94742418160CF082CEC090140683
:10189000D0901506E0901606F09017068090700123
:1018A00090907101A0907201B0907301A501940114
:1018B000C701B6010E94252387FF17C082E08093ED
:1018C00050068091100690911106A0911206B091D9
:1018D00013068093570490935804A0935904B0932F
:1018E0005A0481E08093DC0453CEA5019401C70122
:1018F000B6010E94742487FD4BCE2091DB048091B9
:10190000570490915804A0915904B0915A0422238D
:1019100061F024E02093500680930C0690930D060E
:10192000A0930E06B0930F0633CE25E02093500609
:101930008093100690931106A0931206B09313069D
:1019400027CE8091DB04882361F19091570699237B
:1019500041F14BDAC093C504D0934F06C0901C06EA
:10196000D0901D06E0901E06F0901F06C092100653
:10197000D0921106E0921206F0921306809018069B
:1019800090901906A0901A06B0901B0680920C0643
:1019900090920D06A0920E06B0920F06D0935006BC
:1019A000D6CEC091DA0490915106913009F06AC008
:1019B00080915206813009F1823019F1209157044B
:1019C000309158044091590450915A046091730425
:1019D0007091740480917504909176040E9425237F
:1019E00018160CF4D5CD10922C0610922D061092DC
:1019F0002E0610922F0682E001C083E080935206EB
:101A0000C7CDCC2341F010922C0610922D061092D7
:101A10002E0610922F0660912C0670912D06809153
:101A20002E0690912F060E94C2236B017C0120E0BC
:101A300030E040EA51E460916C0170916D01809159
:101A40006E0190916F010E9478249B01AC01C70147
:101A5000B6010E94742418160CF09ACD81E0809390
:101A60005206209168013091690140916A015091BC
:101A70006B016091570470915804809159049091C2
:101A80005A0457C0811160C0CC2341F01092300637
:101A90001092310610923206109233066091300691
:101AA0007091310680913206909133060E94C223D4
:101AB0006B017C0120E030E040EC5FE360916C0161
:101AC00070916D0180916E0190916F010E94782458
:101AD00020E030E040EA51E40E9478249B01AC0110
:101AE000C701B6010E947424181674F521E02093F2
:101AF00057061092530660915704709158048091D4
:101B0000590490915A0460931C0670931D068093AB
:101B10001E0690931F062093C50420935106209320
:101B20005206209168013091690140916A015091FB
:101B30006B010E94C02260935704709358048093F5
:101B4000590490935A0424CD80915306813019F1A1
:101B5000823009F4ACC02091570430915804409170
:101B6000590450915A0460917304709174048091E7
:101B70007504909176040E94742487FD09CD10921B
:101B800028061092290610922A0610922B0681E050
:101B900080935306FDCCCC2341F01092280610927E
:101BA000290610922A0610922B0660912806709141
:101BB000290680912A0690912B060E94C2236B0170
:101BC0007C012DEC3CEC4CEC5FE360916C0170917E
:101BD0006D0180916E0190916F010E94782420E048
:101BE00030E040EA51E40E9478249B01AC01C70137
:101BF000B6010E94742418160CF0CACC82E08093BF
:101C00005306209168013091690140916A01509119
:101C10006B01609157047091580480915904909120
:101C20005A040E94C12287CF8091340690913506D4
:101C30008037974108F4ACCC1092350610923406E8
:101C400083E08093540620E030E048EC52E411CF6A
:101C50001092350610923406D093540699CC8130F8
:101C600009F096CC80934E0682E080934F06409117
:101C70006401509165016091660170916701409324
:101C80005704509358046093590470935A04109267
:101C900057061092C5041092DC0410923006109280
:101CA000310610923206109233068093510683E07B
:101CB0006FCF1092240610922506109226061092DD
:101CC00027067DCC109228061092290610922A062B
:101CD00010922B0610922C0610922D0610922E06B2
:101CE00010922F0610923006109231061092320692
:101CF00010923306A1CC2F923F924F925F926F9237
:101D00007F928F929F92AF92BF92CF92DF92EF928B
:101D1000FF920F931F93CF93DF93CDB7DEB76397F7
:101D20000FB6F894DEBF0FBECDBFC0902001D0909B
:101D30002101E0902201F0902301A701960160911A
:101D40001E0570911F0580912005909121050E942C
:101D50002523882341F0C0921E05D0921F05E092F2
:101D60002005F0922105C0902401D0902501E0903B
:101D70002601F0902701A70196016091220570913C
:101D8000230580912405909125050E942523882311
:101D900041F0C0922205D0922305E0922405F092F2
:101DA000250560912605709127059E012E5F3F4F06
:101DB000AE014F5F5F4F80E00E943C042090FC0525
:101DC0003090FD054090FE055090FF05C101D20105
:101DD0008093730490937404A0937504B093760475
:101DE00060905F0470906004809061049090620441
:101DF000E0E3AE2EE1E0BE2E04E915E0C12CD12CCB
:101E00007601D5012D913D914D915D915D01B1011D
:101E1000C2010E9478249B01AC01C701B6010E9457
:101E2000C1226B017C01B8E4AB16B1E0BB0691F0B6
:101E3000F80141915191619171918F013497C101E4
:101E4000D20180839183A283B383310142011A01BD
:101E50002B01D7CF85E090E090938E0480938D0482
:101E6000C0926304D0926404E0926504F092660428
:101E7000C301D40180935F0490936004A093610434
:101E8000B093620481E090E090938C0480938B0483
:101E900080914C0190914D01A0914E01B0914F0164
:101EA00088879987AA87BB87A7019601BC01CD01C6
:101EB0000E9478246B017C018091F8059091F905CE
:101EC000A091FA05B091FB058C839D83AE83BF83FF
:101ED000A0E5B1E0BB8BAA8B8C01000F111F000F96
:101EE000111FBD87AC878C809D80AE80BF80312C58
:101EF000212C81E090E0A0E0B0E02C013D01EFEF6B
:101F00004E1A5E0A6E0A7E0AF4E02F0E311C25E09E
:101F100082169104A104B1040CF409C358EA852E79
:101F200055E0952E8C01000F111F000F111FB12CD1
:101F3000A12C412C512C32018C819D81AE81BF811D
:101F4000481659066A067B060CF414C38C879D87D5
:101F5000AE87BF87B7FF04C01C861D861E861F86FE
:101F6000C0920304D0920404E0920504F0920604A7
:101F7000209100063091010640910206509103061F
:101F8000688579858A859B850E9478246B017C0110
:101F90008C819D81AE81BF810596A11DB11D1C0163
:101FA000220C331C220C331CA0E5B1E0B98BA88BAA
:101FB0008C809D80AE80BF8010E000E081E090E0EA
:101FC000A0E0B0E02C013D012FEF421A520A620A54
:101FD000720A0C5F1F4FE5E08E169104A104B10454
:101FE0000CF4EAC22CEB422E25E0522E3C01660C8A
:101FF000771C660C771C10E000E0812C912C5401BA
:102000008C819D81AE81BF8188169906AA06BB0688
:102010000CF4F5C2C0920704D0920804E0920904BF
:10202000F0920A04209104063091050640910606BC
:1020300050910706688579858A859B850E9478245A
:102040006B017C018C819D81AE81BF810A96A11DAF
:10205000B11D1C01220C331C220C331CA0E5B1E085
:10206000B98BA88B8C809D80AE80BF8010E000E093
:1020700081E090E0A0E0B0E02C013D012FEF421A9A
:10208000520A620A720A0C5F1F4FE5E08E16910435
:10209000A104B1040CF4D4C210ED412E15E0512E70
:1020A0003C01660C771C660C771C10E000E0812C6C
:1020B000912C54018C819D81AE81BF818816990637
:1020C000AA06BB060CF4DFC2C0920B04D0920C042B
:1020D000E0920D04F0920E0420910806309109065A
:1020E00040910A0650910B06688579858A859B8503
:1020F0000E9478246B017C018C819D81AE81BF811F
:102100000F96A11DB11D1C01220C331C220C331C87
:102110004C805D806E807F8010E000E0812C912CEF
:1021200054018394D501C4010196A11DB11D888776
:102130009987AA87BB870C5F1F4F95E0491651040A
:10214000610471040CF4C0C2A4EEB5E0B987A8879D
:102150001401220C331C220C331C10E000E0412C33
:10216000512C32018C819D81AE81BF814816590668
:102170006A067B060CF4CDC2C0925B04D0925C046C
:10218000E0925D04F0925E048C859D85AE85BF85EE
:10219000880E991EAA1EBB1E80926B0490926C043E
:1021A000A0926D04B0926E048093670490936804CB
:1021B000A0936904B0936A04C0920F04D0921004F3
:1021C000E0921104F09212044BE454E067E474E0EE
:1021D00083E094E00E94BF1D49ED54E06CE771E09C
:1021E0008BE494E00E94FB1E0AED14E02EE731E040
:1021F0004FE654E069ED74E084ED94E00E94AC1E7B
:10220000EBEDEE2EE4E0FE2E03E914E025EC34E0E5
:1022100040E851E06AED74E087E494E00E942E1BF0
:102220008091F8059091F905A091FA05B091FB0510
:102230000197A109B109B7FD8FC28093F80590936A
:10224000F905A093FA05B093FB058091F8059091EC
:10225000F905A091FA05B091FB05FC01EE0FFF1FF7
:10226000EE0FFF1FE855FA4F40916304509164044C
:102270006091650470916604408351836283738327
:10228000AC01BD014B5F5F4F6F4F7F4F440F551F38
:10229000440F551F48555A4F0091000610910106F2
:1022A0002091020630910306FA01008311832283F4
:1022B0003383AC01BD01465F5F4F6F4F7F4F440FCB
:1022C000551F440F551F48555A4F00910406109151
:1022D00005062091060630910706FA010083118356
:1022E000228333830F96A11DB11D880F991F880F7C
:1022F000991F88559A4F40910806509109066091A0
:102300000A0670910B06DC014D935D936D937C93EF
:102310001397C0901801D0901901E0901A01F09025
:102320001B01A701960160913C0570913D058091CC
:102330003E0590913F050E942523882341F0C092DD
:102340003C05D0923D05E0923E05F0923F05C12C40
:10235000E12C02E010E020E030E049E954E068E2DE
:1023600070E080913205909133050E944F01809179
:10237000990490919A049093C4048093C30463E4F5
:1023800074E083EC94E00E94AE20C0900C01D090E9
:102390000D01E0900E01F0900F01A70196016091F0
:1023A00003057091040580910505909106050E9432
:1023B0002523882341F0C0920305D0920405E092C2
:1023C0000505F092060580910705811105C00E9460
:1023D0002C0281E08093070588E08B83C12CEE24DA
:1023E000E39401E010E020E030E0AE014D5F5F4F8C
:1023F00069E270E080910E0590910F050E94B9018D
:102400008111AFC1CC24C394E12C06E010E020E0A0
:1024100030E049E154E069E270E080910E0590916E
:102420000F050E944F0186E0E9E1F4E0A3E1B4E08A
:1024300001900D928A95E1F780914B0681119EC122
:1024400081E080934B0682E080934C0680914304A8
:1024500090914404A0914504B09146048093FC05FA
:102460009093FD05A093FE05B093FF0560911304C2
:1024700070911404072E000C880B990B0E94C42342
:1024800020E030E048EC52E40E94292360930006EB
:1024900070930106809302069093030660911504E1
:1024A00070911604072E000C880B990B0E94C42310
:1024B00020E030E048EC52E40E94292360930406B7
:1024C00070930506809306069093070660911704A3
:1024D00070911804072E000C880B990B0E94C423DE
:1024E00020E030E048EC52E40E9429236093080683
:1024F0007093090680930A0690930B0663960FB6B5
:10250000F894DEBF0FBECDBFDF91CF911F910F9129
:10251000FF90EF90DF90CF90BF90AF909F908F9003
:102520007F906F905F904F903F902F900895AC8573
:10253000BD856D917D918D919D91BD87AC87F10198
:10254000E00FF11FEC55FA4F208131814281538118
:102550000E9478249B01AC01C701B6010E94C122F0
:102560006B017C01BFEF8B1A9B0AAB0ABB0AD3013C
:10257000C201C3CCD4016D917D918D919D914D018E
:10258000F801EA0DFB1DE45BFE4F208131814281A1
:1025900053810E9478249B01AC01C701B6010E94BF
:1025A000C1226B017C01BFEF4B1A5B0A6B0A7B0AED
:1025B000E4E0AE0EB11CC0CCE889F989619171915B
:1025C00081919191F98BE88BF101E00FF11FEC55AE
:1025D000FA4F20813181428153810E9478249B01EE
:1025E000AC01C701B6010E94C1226B017C01FFEF63
:1025F0008F1A9F0AAF0ABF0AD301C201E3CCD201EE
:102600006D917D918D919D912D01F801E60DF71D44
:10261000E45BFE4F20813181428153810E94782406
:102620009B01AC01C701B6010E94C1226B017C0174
:10263000BFEF8B1A9B0AAB0ABB0A0C5F1F4FE0CCA3
:10264000E889F9896191719181919191F98BE88B78
:10265000F801E20DF31DEC55FA4F208131814281E2
:1026600053810E9478249B01AC01C701B6010E94EE
:10267000C1226B017C01FFEF8F1A9F0AAF0ABF0ACC
:10268000D301C201F9CCD2016D917D918D919D91C3
:102690002D01F801E60DF71DE45BFE4F208131812D
:1026A000428153810E9478249B01AC01C701B6018D
:1026B0000E94C1226B017C01BFEF8B1A9B0AAB0AFF
:1026C000BB0A0C5F1F4FF6CCAA89BB896D917D9127
:1026D0008D919D91BB8BAA8BF101E00FF11FEC5501
:1026E000FA4F20813181428153810E9478249B01DD
:1026F000AC01C701B6010E94C1226B017C01BFEF92
:102700004B1A5B0A6B0A7B0A88849984AA84BB846F
:1027100009CDE885F9856191719181919191F98750
:10272000E887F801E20DF31DE45BFE4F2081318163
:10273000428153810E9478249B01AC01C701B601FC
:102740000E94C1226B017C01FFEF4F1A5F0A6F0AE2
:102750007F0A0C5F1F4F06CD84E090E0A0E0B0E060
:102760006CCD10921404109213041092160410925F
:10277000150410921804109217045ECE80914C0636
:10278000813009F460CE8A81813009F05FCE809378
:102790004C067DD45BCE8F929F92AF92BF92CF9228
:1027A000DF92EF92FF920F931F93CF93DF9300D0AE
:1027B00000D000D0CDB7DEB70E94182180917401FF
:1027C00090917501A0917601B09177018093FC05FD
:1027D0009093FD05A093FE05B093FF0580917801CD
:1027E00090917901A0917A01B0917B0180930006CC
:1027F00090930106A0930206B0930306809304060B
:1028000090930506A0930606B093070680930806EA
:1028100090930906A0930A06B0930B06A1D71092D5
:10282000070580E090E5A3ECB8E48093140590934D
:102830001505A0931605B093170510920A0510927E
:102840000B0510920C0510920D0510920F051092B9
:102850000E05109209051092FD0480910C019091D3
:102860000D01A0910E01B0910F018093030590938B
:102870000405A0930505B093060581E090E0A0E073
:10288000B0E08093FE049093FF04A0930005B09302
:10289000010550E040E060E070E0CB010E941601CD
:1028A00090930F0580930E0540EA56E861E070E0D2
:1028B0004093100550931105609312057093130512
:1028C0000E943A0168E572E080E090E00E940A020E
:1028D0001D821E82C12CEE24E39401E010E020E072
:1028E00030E0AE014A5F5F4F69E270E080910E0513
:1028F00090910F050E94B9018D838111B8C2CC243B
:10290000C394E12C01E010E020E030E0AE014B5F29
:102910005F4F69E270E080910E0590910F050E9473
:102920004F018D8191E0803A09F090E09093080585
:10293000803A09F0ECC01A828DE3898389819A81FB
:102940009C838B83C12CE12C02E010E020E030E07E
:10295000AE014D5F5F4F69E270E080910E0590918E
:102960000F050E94B90169E170E080E090E00E94EB
:102970000A0280E28A838FE3898389819A819C831A
:102980008B8302E010E020E030E0AE014D5F5F4F4E
:1029900069E270E080910E0590910F050E94B901E7
:1029A0001D821E82EE24E39401E010E020E030E07E
:1029B000AE014A5F5F4F69E270E080910E05909131
:1029C0000F050E94B9018D8390E0811113C0CC24C2
:1029D000C394E12C01E010E020E030E0AE014B5F59
:1029E0005F4F69E270E080910E0590910F050E94A3
:1029F0004F019D8181E0903A09F080E080930805C5
:102A000080910805882309F434C262E370E080E015
:102A100090E00E940A021A828EE3898389819A815A
:102A20009C838B83C12CE12C02E010E020E030E09D
:102A3000AE014D5F5F4F69E270E080910E059091AD
:102A40000F050E94B9018FE3898389819A819C8354
:102A50008B8302E010E020E030E0AE014D5F5F4F7D
:102A600069E270E080910E0590910F050E94B90116
:102A700087E0898389819A819C838B8302E010E0BF
:102A800020E030E0AE014D5F5F4F69E270E0809181
:102A90000E0590910F050E94B9016AE070E080E098
:102AA00090E00E940A0280E88A838BE3898389810F
:102AB0009A819C838B8302E010E020E030E0AE013D
:102AC0004D5F5F4F69E270E080910E0590910F05B8
:102AD0000E94B9018CE08A838DE3898389819A8180
:102AE0009C838B8302E010E020E030E0AE014D5F7C
:102AF0005F4F69E270E080910E0590910F050E9492
:102B0000B90169E170E080E090E00E940A02DD24F2
:102B1000D394D092020510925805809110019091A3
:102B20001101A0911201B09113018093600590935F
:102B30006105A0936205B0936305812C912C54012B
:102B400083948092590590925A05A0925B05B092A9
:102B50005C0560E080E00E94FF00D0925D0510926D
:102B6000400580911C0190911D01A0911E01B09122
:102B70001F018093480590934905A0934A05B0939F
:102B80004B058092410590924205A0924305B09278
:102B9000440560E084E00E94FF00D0924505109259
:102BA0004C058091140190911501A0911601B091EE
:102BB00017018093540590935505A0935605B09343
:102BC000570580924D0590924E05A0924F05B09208
:102BD000500560E086E00E94FF00D09251051092FF
:102BE00084058092850590928605A0928705B09213
:102BF000880561E08BE00E94FF00D0928905109269
:102C00007C0580927D0590927E05A0927F05B09212
:102C1000800561E08AE00E94FF00D0928105109259
:102C20008C0580928D0590928E05A0928F05B092B2
:102C30009005E12CF12C8701A801970165E070E077
:102C400080E090E00E94A902909393058093920502
:102C5000D092910510927405809275059092760538
:102C6000A0927705B092780561E081E10E94FF00B3
:102C7000D092790580E090E5A3ECB8E48093380524
:102C800090933905A0933A05B0933B0510922C051B
:102C90008091180190911901A0911A01B0911B0126
:102CA00080933C0590933D05A0933E05B0933F056E
:102CB00080922D0590922E05A0922F05B09230059E
:102CC00050E040E060E070E0CB010E94160190937C
:102CD00033058093320540EA56E861E070E04093A6
:102CE00034055093350560933605709337050E947F
:102CF0003A01D09231050E94F31EA2D480912C019A
:102D000090912D01A0912E01B0912F0180939405F7
:102D100090939505A0939605B09397058093980599
:102D200090939905A0939A05B0939B0580939C0579
:102D300090939D05A0939E05B0939F058093A00559
:102D40009093A105A093A205B093A3058093A40539
:102D50009093A505A093A605B093A705809148017F
:102D600090914901A0914A01B0914B01E8EAF5E048
:102D700081939193A193B19325E0E83FF207C1F7C6
:102D80004DD161D7809182018093560610926C05D7
:102D9000812C912C5401839480926D0590926E0544
:102DA000A0926F05B092700561E088E00E94FF007C
:102DB00011E0109371051092640580926505909260
:102DC0006605A0926705B092680561E089E00E94FF
:102DD000FF001093690510921805809120019091D1
:102DE0002101A0912201B091230180931E059093AF
:102DF0001F05A0932005B093210580912401909197
:102E00002501A0912601B09127018093220590937E
:102E10002305A0932405B09325058092190590926F
:102E20001A05A0921B05B0921C0581E090E09093DA
:102E3000290580932805909327058093260580E037
:102E40000E94B40410931D0526960FB6F894DEBFB9
:102E50000FBECDBFDF91CF911F910F91FF90EF90EB
:102E6000DF90CF90BF90AF909F908F90089580E0BB
:102E700059CD6AE070E080E090E00E940A021D8275
:102E80001E82C12C8FCD80915805811103C081E035
:102E90008093580580914005811103C081E08093A3
:102EA000400580914C05811103C081E080934C0561
:102EB00080918405811103C081E080938405809115
:102EC0007C05811103C081E080937C0580918C0595
:102ED00081112EC081E080938C0580918D059091A9
:102EE0008E05A0918F05B09190050197A105B105C0
:102EF000F9F4809191058823D9F065E070E080E0D5
:102F000090E00E946502909393058093920540E0C3
:102F100050E0BA010E942E0265E070E080E090E08F
:102F20000E94650290939305809392050E94FA0295
:102F300080917405811103C081E0809374058091B4
:102F40002C05811119C081E080932C0580912D05FD
:102F500090912E05A0912F05B09130050197A10504
:102F6000B10551F480913105882331F0809132050B
:102F7000909133050E94F8018091FD04811119C0E0
:102F800081E08093FD048091FE049091FF04A09164
:102F90000005B09101050197A105B10551F480919B
:102FA0000205882331F080910E0590910F050E9453
:102FB000F8018091090581111BC081E0809309050A
:102FC00080910A0590910B05A0910C05B0910D051B
:102FD0000197A105B10561F482E090E0A0E0B0E0C6
:102FE00080930A0590930B05A0930C05B0930D05F3
:102FF00080916C05811103C081E080936C05809104
:103000006405811103C081E08093640580911805F7
:10301000811103C081E0809318050AC3CF93DF9329
:10302000CDEDD4E018828091280190912901A091E2
:103030002A01B0912B018E839F83A887B98781E0F5
:1030400090E0A0E0B0E089839A83AB83BC831A86CA
:103050001B861C861D8680E090E0A0E8BFE38E877B
:103060009F87A88BB98B1A8A1B8A1C8A1D8A1E8A85
:103070001F8A188E198E1A8E1B8E1C8E1D8E80E054
:103080000E94B40481E08D83DF91CF9108952F9247
:103090003F924F925F926F927F928F929F92AF92E8
:1030A000BF92CF92DF92EF92FF920F931F93CF9335
:1030B000DF93CDB7DEB7C255D1090FB6F894DEBFA6
:1030C0000FBECDBFA09037048091380488AF8091A7
:1030D000390489AF80913A048AAF8A2D98ADA9ADA1
:1030E000BAAD8093770490937804A0937904B09359
:1030F0007A046090730470907404809075049090CA
:103100007604C301D40180931F0490932004A093FC
:103110002104B093220480914B048BAF80914C0426
:103120008CAF80914D048DAF80914E048EAF8BADEE
:103130009CADADADBEAD8093230490932404A093C9
:103140002504B093260480914F048FAF80915004E2
:1031500021968FAF21978091510422968FAF2297AD
:103160008091520423968FAF23978FAD21969FAD08
:1031700021972296AFAD22972396BFAD23978093D8
:10318000270490932804A0932904B0932A048091E3
:10319000530424968FAF24978091540425968FAFC3
:1031A00025978091550426968FAF269780915604D7
:1031B00027968FAF279724968FAD249725969FAD9E
:1031C00025972696AFAD26972796BFAD2797809374
:1031D0002B0490932C04A0932D04B0932E04809183
:1031E000470428968FAF28978091480429968FAF7F
:1031F0002997809149042A968FAF2A9780914A0493
:103200002B968FAF2B9728968FAD289729969FAD39
:1032100029972A96AFAD2A972B96BFAD2B9780930F
:103220002F0490933004A0933104B0933204809122
:10323000D40488AB8093C6048091D90489AB809371
:10324000C7048091DA048AAB8093C8048091930408
:103250008CAB809194048DAB8CA980938F048DA945
:10326000809390048091DB048BAB8093C9048091A0
:1032700080018EAB809181018FAB8EA980939104E8
:103280008FA98093920480913F042C968FAF2C9746
:10329000809140042D968FAF2D97809141042E96FA
:1032A0008FAF2E97809142042F968FAF2F972C9639
:1032B0008FAD2C972D969FAD2D972E96AFAD2E9757
:1032C0002F96BFAD2F978093330490933404A0932F
:1032D0003504B0933604B090D504B092CA04C090BF
:1032E000C104C0929B04D090DC04D092CB04E09047
:1032F000D604E092CC04F090D704F092CD04009173
:10330000D8040093CE041091C20410939C048091C1
:10331000950460968FAF60978091960461968FAF09
:1033200061978091970462968FAF6297809198041D
:1033300063968FAF639760929D0470929E04809213
:103340009F049092A004A092A10488AD8093A2044F
:1033500089AD8093A3048AAD8093A4048BAD809340
:103360007B048CAD80937C048DAD80937D048EAD09
:1033700080937E048FAD80937F0421968FAD21973B
:103380008093800422968FAD2297809381042396A8
:103390008FAD23978093820424968FAD24978093DA
:1033A000830425968FAD25978093840426968FAD50
:1033B00026978093850427968FAD27978093860460
:1033C00028968FAD28978093870429968FAD2997EB
:1033D000809388042A968FAD2A97809389042B9630
:1033E0008FAD2B9780938A0488A98093A50489A91F
:1033F0008093A6048AA98093A7048CA98093A8042B
:103400008DA98093A9048BA98093AA048EA9809387
:10341000AB048FA98093AC042C968FAD2C9780932E
:10342000AD049093AE04A093AF04B093B004B092F7
:10343000B104C092B204D092B304E092B404F0920A
:10344000B5040093B6041093B7042090280130907F
:10345000290140902A0150902B01A2019101609115
:10346000E3047091E4048091E5049091E6040E94E5
:103470002523882341F02092E3043092E404409213
:10348000E5045092E60469827A828B829C82AD8246
:1034900088AD8E8389AD8F838AAD88878BAD898710
:1034A0008CAD8A878DAD8B878EAD8C878FAD8D87E8
:1034B00021968FAD21978E8722968FAD22978F8789
:1034C00023968FAD2397888B24968FAD2497898B75
:1034D00025968FAD25978A8B26968FAD26978B8B59
:1034E00027968FAD27978C8B28968FAD28978D8B3D
:1034F00029968FAD29978E8B2A968FAD2A978F8B21
:103500002B968FAD2B97888F88A9898F89A98A8F51
:103510008AA98B8F8CA98C8F8DA98D8F8BA98E8F6B
:103520008EA98F8F8FA988A32C968FAD2C9789A3F6
:103530002D968FAD2D978AA32E968FAD2E978BA3A8
:103540002F968FAD2F978CA3BDA2CEA2DFA2E8A6A7
:10355000F9A60AA71BA760968FAD60978CA7619606
:103560008FAD61978DA762968FAD62978EA7639698
:103570008FAD63978FA76091F7047091F8048091E5
:10358000F9049091FA040E949623C62E6091EF04EC
:103590007091F0048091F1049091F2040E949623BE
:1035A000E62E6091F3047091F4048091F5049091FB
:1035B000F6040E949623062F6091EB047091EC04B0
:1035C0008091ED049091EE040E949623162F609155
:1035D000E7047091E8048091E9049091EA040E9464
:1035E0009623862F912C812C92E0A92E212F4FE239
:1035F00050E0BE016F5F7F4F0E94C204CE5ADF4F82
:103600000FB6F894DEBF0FBECDBFDF91CF911F91F3
:103610000F91FF90EF90DF90CF90BF90AF909F9071
:103620008F907F906F905F904F903F902F90089574
:103630008091DD04811103C081E08093DD04089551
:10364000109259064FE050E062E470E08AE596E09F
:103650000E94923681E08093580608958F929F923F
:10366000AF92BF92CF92DF92EF92FF920F931F9390
:10367000CF936A01F90130813250323018F421E0E1
:1036800020935806209158062130B1F52081211150
:1036900033C04FE050E062E470E08AE596E00E94BB
:1036A00092368EED93E09093840180938301109283
:1036B0005906109258068091830190918401F80177
:1036C0009183808381E0F6014081518120918301C3
:1036D000309184012417350708F480E0F7018083D6
:1036E000CF911F910F91FF90EF90DF90CF90BF90FF
:1036F000AF909F908F900895FB0120812111DBCF27
:10370000209159062F3011F410925906C091590694
:103710002C2F30E0A901465A594F4A01FA01208165
:10372000A0908301B0908401A21AB108FC016081CD
:103730007181828193819F7720E030E040EF52E4F5
:103740000E947824F3D7F40160836A0D7B2D711DEC
:103750007093840160938301CF5FC0935906ABCF10
:103760001092810610927A061092690610928506D0
:1037700010928606109287061092880610927206A2
:1037800010927306109274061092750610926A06D3
:1037900010926B0610926C0610926D0610926E06D7
:1037A00010926F06109270061092710610927D06AC
:1037B00010927E0610927F06109280061092780674
:1037C0001092770610928A0610928906109284064B
:1037D0001092830610927C0681E08093790608950A
:1037E0003F924F925F926F927F928F929F92AF9291
:1037F000BF92CF92DF92EF92FF920F931F93CF93DE
:10380000DF9300D000D000D0CDB7DEB7FC01DB01E4
:103810005A8349833C832B831E830D8380818111CE
:1038200006C0109278061092770610928106818168
:10383000811106C010928A061092890610927A06AB
:103840008281811106C01092840610928306109224
:1038500069068081813081F59091810691112CC09B
:103860004D905D906D907C901397209177063091EC
:103870007806409185065091860660918706709182
:103880008806420F531F611D711D441555056605BD
:10389000770590F480937B0680938106409285069D
:1038A00050928606609287067092880688EE93E0B2
:1038B0009093780680937706318081E0381243C078
:1038C0008091890690918A062C01712C612C4D9172
:1038D0005D916D917C911397009172061091730622
:1038E0002091740630917506040D151D261D371D97
:1038F000041715072607370730F520917A0621119E
:10390000EBC030927A063092790640936A06509363
:103910006B0660936C0670936D0688EE93E090934F
:103920008A06809389064D915D916D917C911397E4
:1039300040937206509373066093740670937506F5
:1039400081E080937606E281E13009F043C0809106
:103950008306909184062C01712C612C4D915D9110
:103960006D917C91139700916E0610916F062091D6
:10397000700630917106040D151D261D371D0417A4
:1039800015072607370730F5209169062111CAC0AF
:10399000E0936906E093790640937D0650937E0696
:1039A00060937F067093800688EE93E09093840680
:1039B000809383068D919D910D90BC91A02D809355
:1039C0006E0690936F06A0937006B093710681E027
:1039D0008093820680917B06813021F480937C065F
:1039E00010927B06809176068130E1F410927C067D
:1039F000109276066091790670E090E080E0C4D67F
:103A00009B01AC01ED81FE81608171818281938196
:103A1000B8D5ED81FE81608371838283938383E0D7
:103A2000F701808380918206813029F510927C060F
:103A30001092820683E0F70180836091790670E03E
:103A400090E080E0A1D64B015C01ED81FE814080D9
:103A5000518062807380A3019201F7D587FF88C0EF
:103A6000A5019401C301B2018BD5ED81FE81608374
:103A700071838283938380917C06813089F4E9810C
:103A8000FA8180819181A281B381ED81FE81808361
:103A90009183A283B383EB81FC818081F7018083D2
:103AA00080917C06F601808326960FB6F894DEBFDF
:103AB0000FBECDBFDF91CF911F910F91FF90EF907F
:103AC000DF90CF90BF90AF909F908F907F906F903E
:103AD0005F904F903F900895213009F01ECF0091E4
:103AE0006A0610916B0620916C0630916D06401BA2
:103AF000510B620B730B880F991F880F991F8C0154
:103B000030E020E082E3041715072607370738F076
:103B1000441655066606770608F0FFCE8AE08093C5
:103B20007906FBCE213009F03FCF00917D06109140
:103B30007E0620917F0630918006401B510B620B60
:103B4000730B880F991F880F991F8C0130E020E0BC
:103B500082E3041715072607370738F04416550681
:103B60006606770608F020CF8AE0809379061CCF9E
:103B7000ED81FE8110821182128213827CCF0F931D
:103B80001F93CF93DF93FC01DA0100811181228121
:103B90003381EB01088319832A833B834481558158
:103BA000668177814D935D936D937C9313974085E8
:103BB00051856285738514964D935D936D937C93C7
:103BC0001797448555856685778518964D935D933F
:103BD0006D937C931B97DF91CF911F910F91089567
:103BE000FC01DB01838180938B06928190938C068C
:103BF0002AE0622F0E944536E82FF0E0E955FE4F9B
:103C000080818C9380918B060E944536E92FF0E0ED
:103C1000E955FE4F8081806811968C9311978091B1
:103C20008C060E944536E82FF0E0E955FE4F808172
:103C300012968C931297E92FF0E0E955FE4F8081A0
:103C400013968C93089510929506109296061092F2
:103C500097061092980610928D0610928E0610927A
:103C60008F06109290061092910610929206109272
:103C70009306109294060895AF92BF92CF92DF926E
:103C8000EF92FF920F931F93CF93DF935B018A0113
:103C9000E901FC01C080D180E280F380209195068B
:103CA000309196064091970650919806C701B6014B
:103CB000CCD4882339F1F5018081811123C0C092D1
:103CC0009506D0929606E0929706F092980688E8BC
:103CD00093E1A0E0B0E080938D0690938E06A093D0
:103CE0008F06B0939006F80180819181A281B38103
:103CF0008093910690939206A0939306B0939406B6
:103D000081E088838091910690919206A09193061C
:103D1000B091940640918D0650918E0660918F0669
:103D200070919006840F951FA61FB71FF801408160
:103D300051816281738184179507A607B70708F43C
:103D40001882DF91CF911F910F91FF90EF90DF903C
:103D5000CF90BF90AF9008950F931F93CF93DF93B1
:103D6000FA01D801EC018881813021F0EB018881D2
:103D7000813031F581E08C9380819181A281B38182
:103D800080939D0690939E06A0939F06B093A006F5
:103D9000D9012D913C9180819181A281B381820FC3
:103DA000931FA11DB11D8093990690939A06A0932D
:103DB0009B06B0939C06DF91CF911F910F910895C0
:103DC00000811181228133814091990650919A0698
:103DD00060919B0670919C0640175107620773071C
:103DE00050F71C92E8CFE1EAF6E085E0DF011D9292
:103DF0008A95E9F708958F929F92AF92BF92CF92E2
:103E0000DF92EF92FF920F931F93CF934C016B01C0
:103E10007A0180911F02853011F410921F020091E7
:103E20001F0210E00F55194FF8018081A090200269
:103E3000B0902102A81AB108F401608171818281D9
:103E400093819F7720E030E040E252E451D56ED478
:103E5000C62FF40164817581868197819F7720E068
:103E600030E040E252E444D561D4C60FF4016085ED
:103E70007185828593859F7720E030E040E252E4AF
:103E800037D554D46C0FF80160836A0D7B2D711DFA
:103E9000709321026093200281E0F601208131813C
:103EA0002617370708F080E0F701808380911F0212
:103EB0008F5F80931F02CF911F910F91FF90EF9022
:103EC000DF90CF90BF90AF909F908F9008956F92AA
:103ED0007F928F929F92AF92BF92CF92DF92EF929A
:103EE000FF920F931F93CF93DF936C013B01F80177
:103EF000D701EA01888181110CC08AE08093A9066C
:103F000084E18093A8061092A60682E38093A70618
:103F10000CC08130B1F59BEF9093A9068093A80661
:103F200082E38093A6061092A706809185018823DC
:103F3000E1F1823009F442C0E901188219821A8243
:103F40001B821C92108280918501823009F042C050
:103F50006091A806772761950CF47095072E000CE8
:103F6000880B990B11D49B01AC01F6016081718122
:103F7000828193816AD387FF45C081E08093850168
:103F800041C0823049F483E08093A9068AE080939F
:103F9000A8068093A606BACF833039F68093A90687
:103FA0008AE08093A80685E0F4CFE901188219829F
:103FB0001A821B8281E08C938083C5CF40E050E061
:103FC0006FE773E4E901488359836A837B831C921A
:103FD00081E0F2CF811125C06091A9067727619514
:103FE0000CF47095072E000C880B990BCDD39B0118
:103FF000AC01E601688179818A819B8175D41816AC
:104000000CF4BBCFDF91CF911F910F91FF90EF90F8
:10401000DF90CF90BF90AF909F908F907F906F90E8
:104020000895813079F7F601C080D180E280F38075
:104030006091A706772761950CF47095072E000C08
:10404000880B990BA1D34B015C01AC019B01C7010B
:10405000B601FBD287FD0FC06091A606062E000CAC
:10406000770B880B990B90D39B01AC01C701B6016C
:104070003BD418163CF6E30188818111C3CFA5011A
:104080009401C701B601E1D287FF03C010928501F8
:10409000B9CF6091A606062E000C770B880B990B02
:1040A00073D39B01AC01C701B6011ED418160CF0E6
:1040B000A9CF82E063CFCF93DF93EB01FC01608156
:1040C00071818281938132D37093AB066093AA068B
:1040D000683EF3E07F0758F518828091AA06909118
:1040E000AB0624E630E0B9010E945136FB01E954E9
:1040F000FE4F808189838091AA069091AB06B90119
:104100000E9451366AE070E00E94513669547E4F39
:10411000FB0120812A839093AB068093AA068954E1
:104120009E4FFC0180818B83DF91CF91089528EE13
:1041300033E0CB01B9010E945136FB01E954FE4F37
:10414000808188838091AA069091AB06B9010E9474
:1041500051369093AB068093AA06BFCF4F925F92E1
:104160006F927F928F929F92AF92BF92CF92DF9287
:10417000EF92FF92CF93DF93EB01FC01608171819D
:104180007627672776277093B1066093B0068090F4
:104190008A0190908B01A0908C01B0908D01C0900D
:1041A0008601D0908701E0908801F090890190E02D
:1041B00080E0E8D2A5019401E3D19B01AC01E1D1FB
:1041C000A701960195D32B013C01A50194016091B3
:1041D0008E0170918F018091900190919101D0D1C9
:1041E0009B01AC01C301B20134D2A7019601C8D131
:1041F0002FE03CED4EE452E47BD36093AC06709329
:10420000AD068093AE069093AF06688379838A8368
:104210009B83DF91CF91FF90EF90DF90CF90BF9085
:10422000AF909F908F907F906F905F904F90089588
:104230001092B8061092B7061092B6061092B90600
:104240001092BA061092BB061092B2061092B306F4
:104250001092B4061092B5060895CF93DF93FC0137
:104260008091B2069091B306A091B406B091B506C4
:104270000196A11DB11D8093B2069093B306A09341
:10428000B406B093B5068091B8068F5F8093B806E8
:1042900080838091B2069091B306A091B406B0914C
:1042A000B506EB0188839983AA83BB838091B80606
:1042B0008A30E0F18091B7068F5F8093B706109245
:1042C000B80610828091B7068A3080F18091B606D8
:1042D0008F5F8093B6061092B7068A3038F18091CE
:1042E000B9068F5F8093B9061092B60681838C332E
:1042F000E8F09091BA069F5F9093BA061092B906C3
:10430000118292839F3021F09E3111F09D3219F479
:1043100081E08093B9069C3348F08091BB068F5FA3
:104320008093BB061092BA0612828383DF91CF91ED
:10433000089526E030E040E052EC61E070E090E06B
:1043400080E00C94F90108951F920F920FB60F921E
:1043500011242F933F934F935F936F937F938F938A
:104360009F93AF93BF93EF93FF9387EE9FEF90934D
:1043700085008093840032D0FF91EF91BF91AF917F
:104380009F918F917F916F915F914F913F912F916D
:104390000F900FBE0F901F90189587EE9FEF909390
:1043A000850080938400AFE6B0E08C918E7F8C9383
:1043B000E0E8F0E080818C7F8083E1E8F0E08081BC
:1043C000877E808380818360808380818B7F8083F0
:1043D0008C9181608C93089581E00895BF92CF9273
:1043E000DF92EF92FF920F931F93CF93DF9300D052
:1043F00000D0CDB7DEB78091260291E0980F909360
:1044000026028823B1F021E030E030932B02209384
:104410002A02809326020F900F900F900F90DF9149
:10442000CF911F910F91FF90EF90DF90CF90BF90B1
:104430000895CE0101960E94270778940E944407B0
:10444000F89480912602815080932602DE01129614
:1044500092E2C92E92E0D92EF60181E090E02D91F2
:10446000222309F443C0218131E0320F318322231A
:1044700009F43CC041E050E050932B0240932A02E3
:104480008E5D9D4FFC01208306E212E0EE24E39452
:10449000F12CBB24B394F80181818111BCCFF601CA
:1044A00081818823B1F0F801B1827894F2E0EF16AF
:1044B000F10419F183E0E816F10411F10E947A0782
:1044C000F894F601818181508183F80181818150C6
:1044D0008183FFEFEF1AFF0A0F5F1F4F8FEFC81A9C
:1044E000D80AE4E0EE16F104B1F695CF01963196C4
:1044F0008430910509F0B3CFC7CF0E94A00AE0CF66
:104500000E947B0EDDCFCF93DF931092BD061092F9
:10451000BC060E948B2A0E9406020BDFC091A501F7
:10452000D091A601198218820E94CB13F89435DF2E
:104530002881398181E0232B09F080E08093BC063B
:10454000789478948091BC06811109C00E94431729
:10455000FADEF89490E080E0DF91CF910895288111
:10456000398181E0232B09F480E08093BD0690918E
:10457000BD0681E0911180E08093BC062DDFE2CF83
:104580005058BB27AA270ED075C166D130F06BD129
:1045900020F031F49F3F11F41EF45BC10EF4E0955E
:1045A000E7FB51C1E92F77D180F3BA176207730790
:1045B0008407950718F071F49EF58FC10EF4E0950D
:1045C0000B2EBA2FA02D0B01B90190010C01CA01CD
:1045D000A0011124FF27591B99F0593F50F4503E78
:1045E00068F11A16F040A22F232F342F4427585F6A
:1045F000F3CF469537952795A795F0405395C9F782
:104600007EF41F16BA0B620B730B840BBAF0915039
:10461000A1F0FF0FBB1F661F771F881FC2F70EC0D8
:10462000BA0F621F731F841F48F4879577956795AB
:10463000B795F7959E3F08F0B3CF9395880F08F094
:104640009927EE0F979587950895D9D008F481E0C2
:1046500008950CD00FC107D140F0FED030F021F406
:104660005F3F19F0F0C0511139C1F3C014D198F374
:104670009923C9F35523B1F3951B550BBB27AA27E3
:1046800062177307840738F09F5F5F4F220F331F55
:10469000441FAA1FA9F333D00E2E3AF0E0E830D021
:1046A00091505040E695001CCAF729D0FE2F27D024
:1046B000660F771F881FBB1F261737074807AB07F2
:1046C000B0E809F0BB0B802DBF01FF2793585F4F67
:1046D0002AF09E3F510568F0B6C000C15F3FECF381
:1046E000983EDCF3869577956795B795F7959F5F2C
:1046F000C9F7880F911D9695879597F90895E1E080
:10470000660F771F881FBB1F621773078407BA07DE
:1047100020F0621B730B840BBA0BEE1F88F7E09539
:10472000089504D06894B111D9C00895BCD088F020
:104730009F5790F0B92F9927B751A0F0D1F0660F8D
:10474000771F881F991F1AF0BA95C9F712C0B130A8
:1047500081F0C3D0B1E00895C0C0672F782F8827BB
:10476000B85F39F0B93FCCF3869577956795B395E7
:10477000D9F73EF490958095709561957F4F8F4F56
:104780009F4F0895E89409C097FB3EF4909580955B
:10479000709561957F4F8F4F9F4F9923A9F0F92F07
:1047A00096E9BB279395F695879577956795B79585
:1047B000F111F8CFFAF4BB0F11F460FF1BC06F5F6B
:1047C0007F4F8F4F9F4F16C0882311F096E911C07D
:1047D000772321F09EE8872F762F05C0662371F09E
:1047E00096E8862F70E060E02AF09A95660F771FB2
:1047F000881FDAF7880F9695879597F90895990F8E
:104800000008550FAA0BE0E8FEEF16161706E8079A
:10481000F907C0F012161306E407F50798F0621BBB
:10482000730B840B950B39F40A2661F0232B242B90
:10483000252B21F408950A2609F4A140A6958FEFAF
:10484000811D811D089597F99F6780E870E060E001
:1048500008959FEF80EC089500240A941616170619
:1048600018060906089500240A9412161306140661
:1048700005060895092E0394000C11F4882352F0C4
:10488000BB0F40F4BF2B11F460FF04C06F5F7F4F7C
:104890008F4F9F4F089557FD9058440F551F59F063
:1048A0005F3F71F04795880F97FB991F61F09F3F1D
:1048B00079F087950895121613061406551FF2CF46
:1048C0004695F1DF08C0161617061806991FF1CF96
:1048D00086957105610508940895E894BB276627BD
:1048E0007727CB0197F908958ADF08F48FEF0895B1
:1048F0000BD0C0CFB1DF28F0B6DF18F0952309F058
:10490000A2CFA7CF1124EACFC6DFA0F3959FD1F3A2
:10491000950F50E0551F629FF001729FBB27F00D6D
:10492000B11D639FAA27F00DB11DAA1F649F6627C2
:10493000B00DA11D661F829F2227B00DA11D621F11
:10494000739FB00DA11D621F839FA00D611D221FCB
:10495000749F3327A00D611D231F849F600D211DAF
:10496000822F762F6A2F11249F5750408AF0E1F052
:1049700088234AF0EE0FFF1FBB1F661F771F881F9B
:1049800091505040A9F79E3F510570F05CCFA6CFE3
:104990005F3FECF3983EDCF3869577956795B79586
:1049A000F795E7959F5FC1F7FE2B880F911D9695B0
:1049B000879597F9089590E080E0089580916002CE
:1049C00090916102891B990B0895909161028091E9
:1049D00060022FEF3FEF981748F4E92FF0E0EE590F
:1049E000FD4F208130E09F5F90936102C9010895DF
:1049F000E091610280916002E81730F4F0E0EE5936
:104A0000FD4F808190E008958FEF9FEF0895089506
:104A1000CF93DF93EC01E0913802F09139023097A7
:104A2000F1F090916102809160029817C0F090E0DF
:104A3000292F30E02617370754F4DE01A20FB31FE9
:104A40004C912E593D4FD9014C939F5FF1CF10925D
:104A5000610260936002CB01DF91CF910994DF91F5
:104A6000CF910895E0913A02F0913B02309729F0FE
:104A700010923E0210923D0209940895CF93DF9365
:104A80001F92CDB7DEB7698320913C022223F9F053
:104A900020913D02203258F021E030E0FC013383C8
:104AA000228390E080E00F90DF91CF910895809174
:104AB0003E02E82FF0E0E15CFD4F998190838F5F2B
:104AC00080933E0280933D0281E090E0ECCF61E074
:104AD000CE01019607D1F8CFCF92DF92EF92FF92ED
:104AE0000F931F93CF93DF937C01CB018A01209119
:104AF0003C02222389F0EB016B01C40ED51ECC15BC
:104B0000DD0561F06991D701ED91FC910190F08193
:104B1000E02DC7010995F3CF642FE4D0C801DF91E0
:104B2000CF911F910F91FF90EF90DF90CF9008955C
:104B3000109261021092600210923E0210923D02A9
:104B400097D082E395E2FAD088E095E2F2C0CB01FB
:104B5000BA01B5C081E080933C0260935F0210927D
:104B60003E0210923D0208950F93062F21E04091DE
:104B70003D026FE372E080915F02DCD110923E0251
:104B800010923D0210923C020F9108954F925F9255
:104B90006F927F92AF92BF92CF92EF92FF920F935C
:104BA0001F93CF93DF935C01F62ED42F2801390198
:104BB000EE2009F1CFDFCE2DC43008F0C3E0C150A4
:104BC000B8F028E0C29FC0011124A301920104C0E3
:104BD00056954795379527958A95D2F7B901D5010E
:104BE000ED91FC910190F081E02DC5010995E7CF91
:104BF00060E0C501B9DF4D2FD13208F040E22C2D25
:104C000062E672E08F2DB9D010926102809360024B
:104C1000DF91CF911F910F91FF90EF90CF90BF90B8
:104C2000AF907F906F905F904F900895CF92EF92EA
:104C30000F931F93C22EE12C00E010E09801A6DF35
:104C40001F910F91EF90CF90089521E0EFCFECE20C
:104C5000F2E01382128288EE93E0A0E0B0E0848359
:104C60009583A683B7838BEC91E09183808308952D
:104C70001092F50281E08093F3021092F20261E05B
:104C800082E0C8D561E083E0C5D5E9EBF0E0808142
:104C90008E7F808380818D7F808388E48093B800BD
:104CA00085E48093BC000895ECEBF0E080818A7B82
:104CB000808360E082E0AED560E083E0ABC59B011D
:104CC000AC0160E074E284EF90E00E946536205110
:104CD00031094109510956954795379527952093F4
:104CE000B80008952091A402260F3327331F2132E4
:104CF0003105ECF42091F502FC0190E080E02430D5
:104D000069F082E00895A091A4022191AC014A5576
:104D10005D4FA40FB52FB11D2C930196861798F304
:104D20008091A402680F6093A40280E0089581E05E
:104D300008959093E9028093E80208959093EB021E
:104D40008093EA02089585EC8093BC001092F502EE
:104D50000895CF93DF9391E09093ED02882351F073
:104D6000C091B800D091BA009FDF82DFD093BA0023
:104D7000C093B800DF91CF9108954F925F926F92E8
:104D80007F928F929F92AF92BF92CF92DF92EF92DB
:104D9000FF920F931F93CF93DF93D82F162F072FD8
:104DA000C42FB22E413208F09DC059D36B017C0153
:104DB0008091F502811173C081E08093F502B09279
:104DC000F3029FEF909382021092C7029C0F909380
:104DD000C6028093F4028091F402DD0FD82BD093A9
:104DE000F4028091F202813009F07EC01092F2024A
:104DF00036D36B017C018091F4028093BB008091DB
:104E0000EE029091EF02A091F002B091F102892B95
:104E10008A2B8B2B99F023D38090EE029090EF0297
:104E2000A090F002B090F1026C197D098E099F09E3
:104E300086169706A806B90608F451C08091BC00F2
:104E400083FDD9CF85EC8093BC0009D36B017C0135
:104E50008091F502813009F449C08091C7028C1716
:104E600010F4C091C702A8ECB2E0912FE12FF02F0F
:104E70008E2F891B8C1708F45AC08C2FDF91CF918D
:104E80001F910F91FF90EF90DF90CF90BF90AF9068
:104E90009F908F907F906F905F904F90089580913A
:104EA000EE029091EF02A091F002B091F102892BF5
:104EB0008A2B8B2B09F47CCFD2D24090EE025090FB
:104EC000EF026090F0027090F1026C197D098E097A
:104ED0009F09461657066806790608F069CF809143
:104EE000EC0237DFC0E0C9CF85EEADCF8091EE0296
:104EF0009091EF02A091F002B091F102892B8A2BE0
:104F00008B2B09F4A5CFABD28090EE029090EF02EC
:104F1000A090F002B090F1026C197D098E099F09F2
:104F200086169706A806B90608F092CFD8CF8D91BD
:104F300081939ECF4F925F926F927F928F929F92BA
:104F4000AF92BF92EF92FF920F931F93CF93DF9395
:104F5000413208F0D2C0F22ED42FE72E162FC82FE0
:104F60007ED24B015C018091F50281116DC082E01F
:104F70008093F5020093F3028FEF809382021092E8
:104F8000C702D093C602912FA8ECB2E0E12FFE2D0C
:104F90008E2F891B8D1708F48AC01092F40280911D
:104FA000F402CC0FC82BC093F4028091F20281303E
:104FB00009F080C01092F20252D24B015C01809144
:104FC000F4028093BB008091EE029091EF02A091D9
:104FD000F002B091F102892B8A2B8B2B99F03FD2F2
:104FE0000091EE021091EF022091F0023091F10257
:104FF000681979098A099B090617170728073907CD
:1050000008F442C08091BC0083FDD9CF85EC809329
:10501000BC0025D24B015C01FF2029F08091F502F4
:10502000823009F449C0809182028F3F09F467C041
:1050300080918202803209F464C0809182028033C0
:1050400009F461C084E024C08091EE029091EF02E7
:10505000A091F002B091F102892B8A2B8B2B09F4DD
:1050600082CFFDD14090EE025090EF026090F002AE
:105070007090F102681979098A099B09461657064A
:105080006806790608F06FCF8091EC0262DE85E059
:10509000DF91CF911F910F91FF90EF90BF90AF9054
:1050A0009F908F907F906F905F904F900895819127
:1050B0008D936ECF85EEABCF8091EE029091EF0293
:1050C000A091F002B091F102892B8A2B8B2B09F46D
:1050D000A3CFC5D10091EE021091EF022091F00212
:1050E0003091F102681979098A099B090617170797
:1050F0002807390708F090CFC7CF81E0C9CF80E0FB
:10510000C7CF82E0C5CF83E0C3CF85ED8093BC00DD
:105110008091EE029091EF02A091F002B091F10225
:105120000796A11DB11D23E0B695A7959795879584
:105130002A95D1F72091BC0024FD03C01092F502FE
:1051400008954091EE025091EF026091F00270914B
:10515000F102452B462B472B69F30097A105B105BA
:1051600041F025E32A95F1F700000197A109B10963
:10517000E1CF8091EC02EDCD1F920F920FB60F920E
:1051800011242F933F934F935F936F937F938F934C
:105190009F93AF93BF93EF93FF938091B900887F64
:1051A000803609F44AC008F03DC0883209F4A6C030
:1051B00018F5803109F49AC0B8F4882309F4F6C0D0
:1051C000883009F493C0FF91EF91BF91AF919F9107
:1051D0008F917F916F915F914F913F912F910F90A0
:1051E0000FBE0F901F901895883109F487C0803248
:1051F00051F78093820214C0803409F49CC040F4BB
:105200008033B9F38833F9F6809382029CDDDBCFDB
:10521000803509F484C0883509F495C0883499F63E
:1052200074DFD1CF883909F48CC038F5883729F07C
:1052300050F4883611F0803731F683E08093F50220
:105240001092830257C0883809F47BC0803919F066
:10525000803809F0B8CF80918302803208F071C0A5
:10526000E091830281E08E0F809383028091BB00E6
:10527000F0E0EC57FD4F80833DC0803B39F0E0F417
:10528000803A09F479C0883A09F09DCF84E0809390
:10529000F5021092A5021092A402E091EA02F091A8
:1052A000EB0209958091A40281110FC081E08093E7
:1052B000A4021092A60209C0803C09F475C0883C83
:1052C00009F472C0883B09F07ECFE091A50281E02D
:1052D0008E0F8093A502F0E0EA55FD4F8081809308
:1052E000BB009091A5028091A40229C08091F40294
:1052F0008093BB0085EC8093BC0065CF9091C70282
:105300008091C602981758F5E091C70281E08E0F90
:105310008093C702F0E0E853FD4F8081E9CFE09130
:10532000C70281E08E0F8093C7028091BB00F0E03E
:10533000E853FD4F80839091C7028091C602981771
:10534000C8F285E8D8CFE091C70281E08E0F809344
:10535000C7028091BB00F0E0E853FD4F808380914D
:10536000F30281115DCF81E08093F20284EA8093A1
:10537000BC001092F50227CFE6DC809183028032D8
:1053800030F4E0918302F0E0EC57FD4F1082609121
:10539000830270E0E091E802F091E90284E892E093
:1053A0000995109283020FCF85ECE1CF1092820213
:1053B00037CF1F920F920FB60F9211242F933F9366
:1053C0008F939F93AF93BF938091F7029091F802D0
:1053D000A091F902B091FA023091F60223E0230F76
:1053E0002D3758F50196A11DB11D2093F60280932B
:1053F000F7029093F802A093F902B093FA02809119
:10540000FB029091FC02A091FD02B091FE02019678
:10541000A11DB11D8093FB029093FC02A093FD029D
:10542000B093FE02BF91AF919F918F913F912F91C9
:105430000F900FBE0F901F90189526E8230F02962D
:10544000A11DB11DD2CF2FB7F8946091F7027091D2
:10545000F8028091F9029091FA022FBF08953FB7A8
:10546000F8948091FB029091FC02A091FD02B09112
:10547000FE0226B5A89B05C02F3F19F00196A11D7D
:10548000B11D3FBFBA2FA92F982F8827BC01CD018E
:10549000620F711D811D911D42E0660F771F881FED
:1054A000991F4A95D1F708958F929F92AF92BF921C
:1054B000CF92DF92EF92FF926B017C01D0DF4B0124
:1054C0005C01C114D104E104F104E1F00E94AC35A7
:1054D000C6DF681979098A099B09683E734081050E
:1054E000910578F321E0C21AD108E108F10888EEAD
:1054F000880E83E0981EA11CB11CC114D104E104E4
:10550000F10431F7FF90EF90DF90CF90BF90AF9014
:105510009F908F900895789484B5826084BD84B5FF
:10552000816084BD85B5826085BD85B5816085BD9E
:10553000EEE6F0E0808181608083E1E8F0E01082B7
:10554000808182608083808181608083E0E8F0E0F8
:10555000808181608083E1E9F0E0808182608083E6
:10556000808181608083E0E9F0E0808181608083D8
:10557000E1ECF0E0808184608083808182608083C0
:10558000808181608083E3ECF0E0808181608083B2
:10559000E0ECF0E0808182608083E2ECF0E08081EA
:1055A00081608083EAE7F0E080818460808380818D
:1055B0008260808380818160808380818068808335
:1055C00008951F93CF93DF93182FEB0161E0E6D08E
:1055D000209731F460E0812FDF91CF911F911AC1A4
:1055E000CF3FD10511F461E0F6CFE12FF0E0E455B3
:1055F000FF4FE491E150EF3008F07FC0F0E0ED5F45
:10560000F44D0C948736122B1A2B1F2B292B332B7E
:105610007D2B7D2B7D2B3D2B472B512B5B2B682B23
:105620007D2B702B84B5806884BDC7BDDF91CF9181
:105630001F91089584B5806284BDC8BDF7CF809165
:105640008000806880938000D0938900C093880098
:10565000EDCF80918000806280938000D0938B009A
:10566000C0938A00E3CF809180008860809380009F
:10567000D0938D00C0938C00D9CF8091900080682A
:1056800080939000D0939900C0939800CFCF8091E1
:105690009000806280939000D0939B00C0939A000A
:1056A000C5CF80919000886080939000D0939D003A
:1056B000C0939C00BBCF8091C00080688093C000E5
:1056C0008091C0008F7B8093C000C093CF00AECF8D
:1056D0008091C00080628093C000C093D000A6CFAC
:1056E0008091C20088608093C2008091C2008B7F4D
:1056F0008093C200C093D20099CFC038D1050CF07E
:1057000072CF68CF81508F3008F047C0E82FF0E0AB
:10571000E457F44D0C948736A92BAD2B9B2BA12B72
:10572000A52BCD2BCD2BCD2BB02BB62BBA2BBE2B37
:10573000C42BCD2BC82B809180008F778093800065
:105740000895809180008F7DF9CF80918000877FC0
:10575000F5CF84B58F7784BD089584B58F7DFBCF59
:10576000809190008F7780939000089580919000B1
:105770008F7DF9CF80919000877FF5CF8091C00019
:105780008F778093C00008958091C0008F7DF9CFFE
:105790008091C200877F8093C2000895CF93DF93EA
:1057A00090E0FC01E553FF4F249186519F4FFC018F
:1057B00084918823C9F090E0880F991FFC01EB5D6C
:1057C000FE4FA591B491FC01E95EFE4FC591D491C5
:1057D00061110DC09FB7F8948C91209582238C9312
:1057E0008881282328839FBFDF91CF91089562305D
:1057F00051F49FB7F8943C91822F809583238C932A
:10580000E8812E2BEFCF8FB7F894EC912E2B2C93B1
:105810008FBFEACF1F93CF93DF93282F30E0F9019A
:10582000E455FF4F8491F901E553FF4FD491F901FD
:10583000E651FF4FC491CC23A1F0162F811162DFF6
:10584000EC2FF0E0EE0FFF1FE95EFE4FA591B49143
:105850008FB7F894EC91111108C0D095DE23DC933A
:105860008FBFDF91CF911F910895DE2BF8CFCF939B
:10587000DF93282F30E0F901E455FF4F8491F901BF
:10588000E553FF4FD491F901E651FF4FC491CC236A
:1058900099F0811137DFEC2FF0E0EE0FFF1FE75F8B
:1058A000FE4FA591B491EC91ED2381E090E009F4D5
:1058B00080E0DF91CF91089580E090E0FACFCF9320
:1058C000DF931F92CDB7DEB76983DC01ED91FC91C8
:1058D0000280F381E02D41E050E0BE016F5F7F4F19
:1058E00009950F90DF91CF910895CF93DF93EC014D
:1058F0008C859D8597FF04C082E024D69D878C8788
:105900008C859D85DF91CF91089583E031D690E01D
:10591000089583E00C941135FC018485958597FDED
:1059200005C082E0C0D590E00196089582E0BBD525
:1059300090E00895FC018485958597FD05C02FEFC3
:105940003FEF35872487089582E0FCC5CF93DF932E
:10595000EC0180919D01882329F083E022D618165E
:10596000190634F081E090E09B838A8380E090E028
:10597000DF91CF910895EEEFFFE72591349181E01B
:105980002B3F3C4D09F080E00895FC0190819E5F23
:10599000908342E450E063E371E080E8B2C6FC012A
:1059A00081819081913A59F4813209F080C047E0B9
:1059B00050E066E971E080E0A4D681E0089591327C
:1059C00009F075C0833269F482819381B0E0A0E070
:1059D0008093920190939301A0939401B0939501C9
:1059E000ECCF803231F467E070E086E991E0AED62A
:1059F000E4CF823211F7828180939D01BCDFE0E029
:105A0000F8E0882311F0EEEFFAE080919601909192
:105A10009701A0919801B0919901803B9440A10514
:105A2000B105D9F480919D0180FD17C0EE3F8AE059
:105A3000F80771F587E797E791838083809160008D
:105A400080934F0388E19BE00FB6F894A89580936C
:105A500060000FBE90936000B0CF80819181873746
:105A6000974709F0AACFA89580916000886180933C
:105A7000600080914F0380936000EE3F8AE0F8075A
:105A800089F08091FE0A9091FF0A9183808395CFDF
:105A9000808191818737980769F29093FF0A8093FC
:105AA000FE0AC8CF1092FF0A1092FE0A86CF80E04D
:105AB00008952FEF3FEFFC01358724870895EFEF1E
:105AC000F2E01382128288EE93E0A0E0B0E08483DB
:105AD0009583A683B7838DED91E0918380838FEFCB
